{
  "_format": "hh-sol-artifact-1",
  "contractName": "CreatorNFT_LT",
  "sourceName": "contracts/LoyaltyTokens/CreatorNFT_LT.sol",
  "abi": [
    {
      "inputs": [
        {
          "internalType": "address",
          "name": "_creator",
          "type": "address"
        },
        {
          "internalType": "string",
          "name": "_name",
          "type": "string"
        },
        {
          "internalType": "string",
          "name": "_symbol",
          "type": "string"
        }
      ],
      "stateMutability": "nonpayable",
      "type": "constructor"
    },
    {
      "anonymous": false,
      "inputs": [
        {
          "indexed": true,
          "internalType": "address",
          "name": "owner",
          "type": "address"
        },
        {
          "indexed": true,
          "internalType": "address",
          "name": "approved",
          "type": "address"
        },
        {
          "indexed": true,
          "internalType": "uint256",
          "name": "tokenId",
          "type": "uint256"
        }
      ],
      "name": "Approval",
      "type": "event"
    },
    {
      "anonymous": false,
      "inputs": [
        {
          "indexed": true,
          "internalType": "address",
          "name": "owner",
          "type": "address"
        },
        {
          "indexed": true,
          "internalType": "address",
          "name": "operator",
          "type": "address"
        },
        {
          "indexed": false,
          "internalType": "bool",
          "name": "approved",
          "type": "bool"
        }
      ],
      "name": "ApprovalForAll",
      "type": "event"
    },
    {
      "anonymous": false,
      "inputs": [
        {
          "indexed": true,
          "internalType": "address",
          "name": "from",
          "type": "address"
        },
        {
          "indexed": true,
          "internalType": "address",
          "name": "to",
          "type": "address"
        },
        {
          "indexed": true,
          "internalType": "uint256",
          "name": "tokenId",
          "type": "uint256"
        }
      ],
      "name": "Transfer",
      "type": "event"
    },
    {
      "inputs": [
        {
          "internalType": "address",
          "name": "to",
          "type": "address"
        },
        {
          "internalType": "uint256",
          "name": "tokenId",
          "type": "uint256"
        }
      ],
      "name": "approve",
      "outputs": [],
      "stateMutability": "nonpayable",
      "type": "function"
    },
    {
      "inputs": [
        {
          "internalType": "address",
          "name": "owner",
          "type": "address"
        }
      ],
      "name": "balanceOf",
      "outputs": [
        {
          "internalType": "uint256",
          "name": "",
          "type": "uint256"
        }
      ],
      "stateMutability": "view",
      "type": "function"
    },
    {
      "inputs": [
        {
          "internalType": "string[]",
          "name": "tokenURI",
          "type": "string[]"
        },
        {
          "internalType": "address",
          "name": "_vault",
          "type": "address"
        }
      ],
      "name": "createBatchToken",
      "outputs": [
        {
          "internalType": "uint256",
          "name": "start",
          "type": "uint256"
        },
        {
          "internalType": "uint256",
          "name": "end",
          "type": "uint256"
        }
      ],
      "stateMutability": "nonpayable",
      "type": "function"
    },
    {
      "inputs": [
        {
          "internalType": "string",
          "name": "tokenURI",
          "type": "string"
        },
        {
          "internalType": "address",
          "name": "_vault",
          "type": "address"
        }
      ],
      "name": "createToken",
      "outputs": [
        {
          "internalType": "uint256",
          "name": "",
          "type": "uint256"
        }
      ],
      "stateMutability": "nonpayable",
      "type": "function"
    },
    {
      "inputs": [],
      "name": "creator",
      "outputs": [
        {
          "internalType": "address",
          "name": "",
          "type": "address"
        }
      ],
      "stateMutability": "view",
      "type": "function"
    },
    {
      "inputs": [
        {
          "internalType": "uint256",
          "name": "tokenId",
          "type": "uint256"
        }
      ],
      "name": "getApproved",
      "outputs": [
        {
          "internalType": "address",
          "name": "",
          "type": "address"
        }
      ],
      "stateMutability": "view",
      "type": "function"
    },
    {
      "inputs": [
        {
          "internalType": "address",
          "name": "owner",
          "type": "address"
        },
        {
          "internalType": "address",
          "name": "operator",
          "type": "address"
        }
      ],
      "name": "isApprovedForAll",
      "outputs": [
        {
          "internalType": "bool",
          "name": "",
          "type": "bool"
        }
      ],
      "stateMutability": "view",
      "type": "function"
    },
    {
      "inputs": [],
      "name": "name",
      "outputs": [
        {
          "internalType": "string",
          "name": "",
          "type": "string"
        }
      ],
      "stateMutability": "view",
      "type": "function"
    },
    {
      "inputs": [
        {
          "internalType": "uint256",
          "name": "tokenId",
          "type": "uint256"
        }
      ],
      "name": "ownerOf",
      "outputs": [
        {
          "internalType": "address",
          "name": "",
          "type": "address"
        }
      ],
      "stateMutability": "view",
      "type": "function"
    },
    {
      "inputs": [
        {
          "internalType": "address",
          "name": "from",
          "type": "address"
        },
        {
          "internalType": "address",
          "name": "to",
          "type": "address"
        },
        {
          "internalType": "uint256",
          "name": "tokenId",
          "type": "uint256"
        }
      ],
      "name": "safeTransferFrom",
      "outputs": [],
      "stateMutability": "nonpayable",
      "type": "function"
    },
    {
      "inputs": [
        {
          "internalType": "address",
          "name": "from",
          "type": "address"
        },
        {
          "internalType": "address",
          "name": "to",
          "type": "address"
        },
        {
          "internalType": "uint256",
          "name": "tokenId",
          "type": "uint256"
        },
        {
          "internalType": "bytes",
          "name": "_data",
          "type": "bytes"
        }
      ],
      "name": "safeTransferFrom",
      "outputs": [],
      "stateMutability": "nonpayable",
      "type": "function"
    },
    {
      "inputs": [
        {
          "internalType": "address",
          "name": "operator",
          "type": "address"
        },
        {
          "internalType": "bool",
          "name": "approved",
          "type": "bool"
        }
      ],
      "name": "setApprovalForAll",
      "outputs": [],
      "stateMutability": "nonpayable",
      "type": "function"
    },
    {
      "inputs": [
        {
          "internalType": "bytes4",
          "name": "interfaceId",
          "type": "bytes4"
        }
      ],
      "name": "supportsInterface",
      "outputs": [
        {
          "internalType": "bool",
          "name": "",
          "type": "bool"
        }
      ],
      "stateMutability": "view",
      "type": "function"
    },
    {
      "inputs": [],
      "name": "symbol",
      "outputs": [
        {
          "internalType": "string",
          "name": "",
          "type": "string"
        }
      ],
      "stateMutability": "view",
      "type": "function"
    },
    {
      "inputs": [
        {
          "internalType": "uint256",
          "name": "tokenId",
          "type": "uint256"
        }
      ],
      "name": "tokenURI",
      "outputs": [
        {
          "internalType": "string",
          "name": "",
          "type": "string"
        }
      ],
      "stateMutability": "view",
      "type": "function"
    },
    {
      "inputs": [
        {
          "internalType": "address",
          "name": "from",
          "type": "address"
        },
        {
          "internalType": "address",
          "name": "to",
          "type": "address"
        },
        {
          "internalType": "uint256",
          "name": "tokenId",
          "type": "uint256"
        }
      ],
      "name": "transferFrom",
      "outputs": [],
      "stateMutability": "nonpayable",
      "type": "function"
    }
  ],
  "bytecode": "0x60806040523480156200001157600080fd5b5060405162001bf038038062001bf08339810160408190526200003491620001f1565b8151829082906200004d90600090602085019062000098565b5080516200006390600190602084019062000098565b5050600880546001600160a01b039095166001600160a01b0319958616179055505060098054909216331790915550620002ca565b828054620000a69062000277565b90600052602060002090601f016020900481019282620000ca576000855562000115565b82601f10620000e557805160ff191683800117855562000115565b8280016001018555821562000115579182015b8281111562000115578251825591602001919060010190620000f8565b506200012392915062000127565b5090565b5b8082111562000123576000815560010162000128565b600082601f8301126200014f578081fd5b81516001600160401b03808211156200016c576200016c620002b4565b604051601f8301601f19908116603f01168101908282118183101715620001975762000197620002b4565b81604052838152602092508683858801011115620001b3578485fd5b8491505b83821015620001d65785820183015181830184015290820190620001b7565b83821115620001e757848385830101525b9695505050505050565b60008060006060848603121562000206578283fd5b83516001600160a01b03811681146200021d578384fd5b60208501519093506001600160401b03808211156200023a578384fd5b62000248878388016200013e565b935060408601519150808211156200025e578283fd5b506200026d868287016200013e565b9150509250925092565b600181811c908216806200028c57607f821691505b60208210811415620002ae57634e487b7160e01b600052602260045260246000fd5b50919050565b634e487b7160e01b600052604160045260246000fd5b61191680620002da6000396000f3fe608060405234801561001057600080fd5b50600436106100d05760003560e01c806301ffc9a7146100d557806302d05d3f146100fd57806306fdde0314610128578063081812fc1461013d578063095ea7b31461015057806323b872dd1461016557806342842e0e146101785780636352211e1461018b57806370a082311461019e57806395d89b41146101bf578063a2119377146101c7578063a22cb465146101da578063b88d4fde146101ed578063bc7ee4ac14610200578063c87b56dd14610228578063e985e9c51461023b575b600080fd5b6100e86100e336600461157c565b61024e565b60405190151581526020015b60405180910390f35b600854610110906001600160a01b031681565b6040516001600160a01b0390911681526020016100f4565b6101306102a0565b6040516100f491906116a6565b61011061014b3660046115f6565b610332565b61016361015e366004611480565b6103bf565b005b610163610173366004611393565b6104d0565b610163610186366004611393565b610501565b6101106101993660046115f6565b61051c565b6101b16101ac366004611350565b610593565b6040519081526020016100f4565b61013061061a565b6101b16101d53660046115b4565b610629565b6101636101e8366004611446565b6106cc565b6101636101fb3660046113ce565b61078d565b61021361020e3660046114a9565b6107c5565b604080519283526020830191909152016100f4565b6101306102363660046115f6565b6108ca565b6100e861024936600461136a565b610a41565b60006001600160e01b031982166380ac58cd60e01b148061027f57506001600160e01b03198216635b5e139f60e01b145b8061029a57506301ffc9a760e01b6001600160e01b03198316145b92915050565b6060600080546102af906117fb565b80601f01602080910402602001604051908101604052809291908181526020018280546102db906117fb565b80156103285780601f106102fd57610100808354040283529160200191610328565b820191906000526020600020905b81548152906001019060200180831161030b57829003601f168201915b5050505050905090565b600061033d82610a6f565b6103a35760405162461bcd60e51b815260206004820152602c60248201527f4552433732313a20617070726f76656420717565727920666f72206e6f6e657860448201526b34b9ba32b73a103a37b5b2b760a11b60648201526084015b60405180910390fd5b506000908152600460205260409020546001600160a01b031690565b60006103ca8261051c565b9050806001600160a01b0316836001600160a01b031614156104385760405162461bcd60e51b815260206004820152602160248201527f4552433732313a20617070726f76616c20746f2063757272656e74206f776e656044820152603960f91b606482015260840161039a565b336001600160a01b038216148061045457506104548133610a41565b6104c15760405162461bcd60e51b815260206004820152603860248201527f4552433732313a20617070726f76652063616c6c6572206973206e6f74206f776044820152771b995c881b9bdc88185c1c1c9bdd995908199bdc88185b1b60421b606482015260840161039a565b6104cb8383610a8c565b505050565b6104da3382610afa565b6104f65760405162461bcd60e51b815260040161039a9061170b565b6104cb838383610bbc565b6104cb8383836040518060200160405280600081525061078d565b6000818152600260205260408120546001600160a01b03168061029a5760405162461bcd60e51b815260206004820152602960248201527f4552433732313a206f776e657220717565727920666f72206e6f6e657869737460448201526832b73a103a37b5b2b760b91b606482015260840161039a565b60006001600160a01b0382166105fe5760405162461bcd60e51b815260206004820152602a60248201527f4552433732313a2062616c616e636520717565727920666f7220746865207a65604482015269726f206164647265737360b01b606482015260840161039a565b506001600160a01b031660009081526003602052604090205490565b6060600180546102af906117fb565b6009546000906001600160a01b031633146106965760405162461bcd60e51b815260206004820152602760248201527f58656c646f7261646f3a206f6e6c79207661756c742063616e2063726561746560448201526620746f6b656e7360c81b606482015260840161039a565b6106a4600780546001019055565b60006106af60075490565b90506106bb8382610d4a565b6106c58185610e6a565b9392505050565b6001600160a01b0382163314156107215760405162461bcd60e51b815260206004820152601960248201527822a9219b99189d1030b8383937bb32903a379031b0b63632b960391b604482015260640161039a565b3360008181526005602090815260408083206001600160a01b03871680855290835292819020805460ff191686151590811790915590519081529192917f17307eab39ab6107e8899845ad3d59bd9653f200f220920489ca2b5937696c31910160405180910390a35050565b6107973383610afa565b6107b35760405162461bcd60e51b815260040161039a9061170b565b6107bf84848484610ef5565b50505050565b60095460009081906001600160a01b031633146108355760405162461bcd60e51b815260206004820152602860248201527f58656c646f7261646f3a206f6e6c79207661756c742063616e206374726561746044820152676520746f6b656e7360c01b606482015260840161039a565b60075461084390600161178c565b915060005b84518110156108bc5761085f600780546001019055565b6108718461086c60075490565b610d4a565b6108aa61087d60075490565b86838151811061089d57634e487b7160e01b600052603260045260246000fd5b6020026020010151610e6a565b806108b481611836565b915050610848565b506007545b90509250929050565b60606108d582610a6f565b61093b5760405162461bcd60e51b815260206004820152603160248201527f45524337323155524953746f726167653a2055524920717565727920666f72206044820152703737b732bc34b9ba32b73a103a37b5b2b760791b606482015260840161039a565b60008281526006602052604081208054610954906117fb565b80601f0160208091040260200160405190810160405280929190818152602001828054610980906117fb565b80156109cd5780601f106109a2576101008083540402835291602001916109cd565b820191906000526020600020905b8154815290600101906020018083116109b057829003601f168201915b5050505050905060006109eb60408051602081019091526000815290565b90508051600014156109fe575092915050565b815115610a30578082604051602001610a1892919061163a565b60405160208183030381529060405292505050919050565b610a3984610f28565b949350505050565b6001600160a01b03918216600090815260056020908152604080832093909416825291909152205460ff1690565b6000908152600260205260409020546001600160a01b0316151590565b600081815260046020526040902080546001600160a01b0319166001600160a01b0384169081179091558190610ac18261051c565b6001600160a01b03167f8c5be1e5ebec7d5bd14f71427d1e84f3dd0314c0f7b2291e5b200ac8c7c3b92560405160405180910390a45050565b6000610b0582610a6f565b610b665760405162461bcd60e51b815260206004820152602c60248201527f4552433732313a206f70657261746f7220717565727920666f72206e6f6e657860448201526b34b9ba32b73a103a37b5b2b760a11b606482015260840161039a565b6000610b718361051c565b9050806001600160a01b0316846001600160a01b03161480610bac5750836001600160a01b0316610ba184610332565b6001600160a01b0316145b80610a395750610a398185610a41565b826001600160a01b0316610bcf8261051c565b6001600160a01b031614610c375760405162461bcd60e51b815260206004820152602960248201527f4552433732313a207472616e73666572206f6620746f6b656e2074686174206960448201526839903737ba1037bbb760b91b606482015260840161039a565b6001600160a01b038216610c995760405162461bcd60e51b8152602060048201526024808201527f4552433732313a207472616e7366657220746f20746865207a65726f206164646044820152637265737360e01b606482015260840161039a565b610ca4600082610a8c565b6001600160a01b0383166000908152600360205260408120805460019290610ccd9084906117b8565b90915550506001600160a01b0382166000908152600360205260408120805460019290610cfb90849061178c565b909155505060008181526002602052604080822080546001600160a01b0319166001600160a01b0386811691821790925591518493918716916000805160206118c183398151915291a4505050565b6001600160a01b038216610da05760405162461bcd60e51b815260206004820181905260248201527f4552433732313a206d696e7420746f20746865207a65726f2061646472657373604482015260640161039a565b610da981610a6f565b15610df55760405162461bcd60e51b815260206004820152601c60248201527b115490cdcc8c4e881d1bdad95b88185b1c9958591e481b5a5b9d195960221b604482015260640161039a565b6001600160a01b0382166000908152600360205260408120805460019290610e1e90849061178c565b909155505060008181526002602052604080822080546001600160a01b0319166001600160a01b03861690811790915590518392906000805160206118c1833981519152908290a45050565b610e7382610a6f565b610ed65760405162461bcd60e51b815260206004820152602e60248201527f45524337323155524953746f726167653a2055524920736574206f66206e6f6e60448201526d32bc34b9ba32b73a103a37b5b2b760911b606482015260840161039a565b600082815260066020908152604090912082516104cb92840190611225565b610f00848484610bbc565b610f0c84848484610fff565b6107bf5760405162461bcd60e51b815260040161039a906116b9565b6060610f3382610a6f565b610f975760405162461bcd60e51b815260206004820152602f60248201527f4552433732314d657461646174613a2055524920717565727920666f72206e6f60448201526e3732bc34b9ba32b73a103a37b5b2b760891b606482015260840161039a565b6000610fae60408051602081019091526000815290565b90506000815111610fce57604051806020016040528060008152506106c5565b80610fd88461110c565b604051602001610fe992919061163a565b6040516020818303038152906040529392505050565b60006001600160a01b0384163b1561110157604051630a85bd0160e11b81526001600160a01b0385169063150b7a0290611043903390899088908890600401611669565b602060405180830381600087803b15801561105d57600080fd5b505af192505050801561108d575060408051601f3d908101601f1916820190925261108a91810190611598565b60015b6110e7573d8080156110bb576040519150601f19603f3d011682016040523d82523d6000602084013e6110c0565b606091505b5080516110df5760405162461bcd60e51b815260040161039a906116b9565b805181602001fd5b6001600160e01b031916630a85bd0160e11b149050610a39565b506001949350505050565b6060816111305750506040805180820190915260018152600360fc1b602082015290565b8160005b811561115a578061114481611836565b91506111539050600a836117a4565b9150611134565b6000816001600160401b0381111561118257634e487b7160e01b600052604160045260246000fd5b6040519080825280601f01601f1916602001820160405280156111ac576020820181803683370190505b5090505b8415610a39576111c16001836117b8565b91506111ce600a86611851565b6111d990603061178c565b60f81b8183815181106111fc57634e487b7160e01b600052603260045260246000fd5b60200101906001600160f81b031916908160001a90535061121e600a866117a4565b94506111b0565b828054611231906117fb565b90600052602060002090601f0160209004810192826112535760008555611299565b82601f1061126c57805160ff1916838001178555611299565b82800160010185558215611299579182015b8281111561129957825182559160200191906001019061127e565b506112a59291506112a9565b5090565b5b808211156112a557600081556001016112aa565b60006001600160401b038311156112d7576112d7611891565b6112ea601f8401601f191660200161175c565b90508281528383830111156112fe57600080fd5b828260208301376000602084830101529392505050565b80356001600160a01b038116811461132c57600080fd5b919050565b600082601f830112611341578081fd5b6106c5838335602085016112be565b600060208284031215611361578081fd5b6106c582611315565b6000806040838503121561137c578081fd5b61138583611315565b91506108c160208401611315565b6000806000606084860312156113a7578081fd5b6113b084611315565b92506113be60208501611315565b9150604084013590509250925092565b600080600080608085870312156113e3578081fd5b6113ec85611315565b93506113fa60208601611315565b92506040850135915060608501356001600160401b0381111561141b578182fd5b8501601f8101871361142b578182fd5b61143a878235602084016112be565b91505092959194509250565b60008060408385031215611458578182fd5b61146183611315565b915060208301358015158114611475578182fd5b809150509250929050565b60008060408385031215611492578182fd5b61149b83611315565b946020939093013593505050565b600080604083850312156114bb578182fd5b82356001600160401b03808211156114d1578384fd5b818501915085601f8301126114e4578384fd5b81356020828211156114f8576114f8611891565b8160051b61150782820161175c565b8381528281019086840183880185018c101561152157898afd5b8993505b8584101561155e5780358781111561153b578a8bfd5b6115498d87838c0101611331565b84525060019390930192918401918401611525565b50975061156f915050878201611315565b9450505050509250929050565b60006020828403121561158d578081fd5b81356106c5816118a7565b6000602082840312156115a9578081fd5b81516106c5816118a7565b600080604083850312156115c6578182fd5b82356001600160401b038111156115db578283fd5b6115e785828601611331565b9250506108c160208401611315565b600060208284031215611607578081fd5b5035919050565b600081518084526116268160208601602086016117cf565b601f01601f19169290920160200192915050565b6000835161164c8184602088016117cf565b8351908301906116608183602088016117cf565b01949350505050565b6001600160a01b038581168252841660208201526040810183905260806060820181905260009061169c9083018461160e565b9695505050505050565b6020815260006106c5602083018461160e565b60208082526032908201527f4552433732313a207472616e7366657220746f206e6f6e20455243373231526560408201527131b2b4bb32b91034b6b83632b6b2b73a32b960711b606082015260800190565b60208082526031908201527f4552433732313a207472616e736665722063616c6c6572206973206e6f74206f6040820152701ddb995c881b9bdc88185c1c1c9bdd9959607a1b606082015260800190565b604051601f8201601f191681016001600160401b038111828210171561178457611784611891565b604052919050565b6000821982111561179f5761179f611865565b500190565b6000826117b3576117b361187b565b500490565b6000828210156117ca576117ca611865565b500390565b60005b838110156117ea5781810151838201526020016117d2565b838111156107bf5750506000910152565b600181811c9082168061180f57607f821691505b6020821081141561183057634e487b7160e01b600052602260045260246000fd5b50919050565b600060001982141561184a5761184a611865565b5060010190565b6000826118605761186061187b565b500690565b634e487b7160e01b600052601160045260246000fd5b634e487b7160e01b600052601260045260246000fd5b634e487b7160e01b600052604160045260246000fd5b6001600160e01b0319811681146118bd57600080fd5b5056feddf252ad1be2c89b69c2b068fc378daa952ba7f163c4a11628f55a4df523b3efa2646970667358221220e00c3b31e6c925ff1cf229c79f48a579acfa7cea68fd822569be358183c0de5464736f6c63430008040033",
  "linkReferences": {},
  "deployedLinkReferences": {}
}