{
  "_format": "hh-sol-artifact-1",
  "contractName": "CreatorToken_LT",
  "sourceName": "contracts/LoyaltyTokens/CreatorToken_LT.sol",
  "abi": [
    {
      "inputs": [
        {
          "internalType": "address",
          "name": "_creator",
          "type": "address"
        },
        {
          "internalType": "string",
          "name": "name",
          "type": "string"
        },
        {
          "internalType": "string",
          "name": "symbol",
          "type": "string"
        },
        {
          "internalType": "address",
          "name": "_basetoken",
          "type": "address"
        }
      ],
      "stateMutability": "nonpayable",
      "type": "constructor"
    },
    {
      "anonymous": false,
      "inputs": [
        {
          "indexed": true,
          "internalType": "address",
          "name": "owner",
          "type": "address"
        },
        {
          "indexed": true,
          "internalType": "address",
          "name": "spender",
          "type": "address"
        },
        {
          "indexed": false,
          "internalType": "uint256",
          "name": "value",
          "type": "uint256"
        }
      ],
      "name": "Approval",
      "type": "event"
    },
    {
      "anonymous": false,
      "inputs": [
        {
          "indexed": true,
          "internalType": "address",
          "name": "from",
          "type": "address"
        },
        {
          "indexed": true,
          "internalType": "address",
          "name": "to",
          "type": "address"
        },
        {
          "indexed": false,
          "internalType": "uint256",
          "name": "value",
          "type": "uint256"
        }
      ],
      "name": "Transfer",
      "type": "event"
    },
    {
      "anonymous": false,
      "inputs": [
        {
          "indexed": false,
          "internalType": "address",
          "name": "ctoken",
          "type": "address"
        },
        {
          "indexed": false,
          "internalType": "uint256",
          "name": "amount",
          "type": "uint256"
        },
        {
          "indexed": false,
          "internalType": "address",
          "name": "_of",
          "type": "address"
        }
      ],
      "name": "tokensBurnt",
      "type": "event"
    },
    {
      "anonymous": false,
      "inputs": [
        {
          "indexed": false,
          "internalType": "address",
          "name": "ctoken",
          "type": "address"
        },
        {
          "indexed": false,
          "internalType": "uint256",
          "name": "amount",
          "type": "uint256"
        },
        {
          "indexed": false,
          "internalType": "address",
          "name": "to",
          "type": "address"
        }
      ],
      "name": "tokensMinted",
      "type": "event"
    },
    {
      "inputs": [
        {
          "internalType": "address",
          "name": "owner",
          "type": "address"
        },
        {
          "internalType": "address",
          "name": "spender",
          "type": "address"
        }
      ],
      "name": "allowance",
      "outputs": [
        {
          "internalType": "uint256",
          "name": "",
          "type": "uint256"
        }
      ],
      "stateMutability": "view",
      "type": "function"
    },
    {
      "inputs": [
        {
          "internalType": "address",
          "name": "spender",
          "type": "address"
        },
        {
          "internalType": "uint256",
          "name": "amount",
          "type": "uint256"
        }
      ],
      "name": "approve",
      "outputs": [
        {
          "internalType": "bool",
          "name": "",
          "type": "bool"
        }
      ],
      "stateMutability": "nonpayable",
      "type": "function"
    },
    {
      "inputs": [
        {
          "internalType": "address",
          "name": "account",
          "type": "address"
        }
      ],
      "name": "balanceOf",
      "outputs": [
        {
          "internalType": "uint256",
          "name": "",
          "type": "uint256"
        }
      ],
      "stateMutability": "view",
      "type": "function"
    },
    {
      "inputs": [],
      "name": "basetoken",
      "outputs": [
        {
          "internalType": "address",
          "name": "",
          "type": "address"
        }
      ],
      "stateMutability": "view",
      "type": "function"
    },
    {
      "inputs": [
        {
          "internalType": "uint256",
          "name": "_amount",
          "type": "uint256"
        }
      ],
      "name": "burnMyTokens",
      "outputs": [],
      "stateMutability": "nonpayable",
      "type": "function"
    },
    {
      "inputs": [
        {
          "internalType": "uint256",
          "name": "_amount",
          "type": "uint256"
        }
      ],
      "name": "buyTokens",
      "outputs": [],
      "stateMutability": "nonpayable",
      "type": "function"
    },
    {
      "inputs": [],
      "name": "creator",
      "outputs": [
        {
          "internalType": "address",
          "name": "",
          "type": "address"
        }
      ],
      "stateMutability": "view",
      "type": "function"
    },
    {
      "inputs": [],
      "name": "dao",
      "outputs": [
        {
          "internalType": "address",
          "name": "",
          "type": "address"
        }
      ],
      "stateMutability": "view",
      "type": "function"
    },
    {
      "inputs": [],
      "name": "decimals",
      "outputs": [
        {
          "internalType": "uint8",
          "name": "",
          "type": "uint8"
        }
      ],
      "stateMutability": "view",
      "type": "function"
    },
    {
      "inputs": [
        {
          "internalType": "address",
          "name": "spender",
          "type": "address"
        },
        {
          "internalType": "uint256",
          "name": "subtractedValue",
          "type": "uint256"
        }
      ],
      "name": "decreaseAllowance",
      "outputs": [
        {
          "internalType": "bool",
          "name": "",
          "type": "bool"
        }
      ],
      "stateMutability": "nonpayable",
      "type": "function"
    },
    {
      "inputs": [
        {
          "internalType": "address",
          "name": "spender",
          "type": "address"
        },
        {
          "internalType": "uint256",
          "name": "addedValue",
          "type": "uint256"
        }
      ],
      "name": "increaseAllowance",
      "outputs": [
        {
          "internalType": "bool",
          "name": "",
          "type": "bool"
        }
      ],
      "stateMutability": "nonpayable",
      "type": "function"
    },
    {
      "inputs": [
        {
          "internalType": "address",
          "name": "_dao",
          "type": "address"
        }
      ],
      "name": "initialize",
      "outputs": [],
      "stateMutability": "nonpayable",
      "type": "function"
    },
    {
      "inputs": [
        {
          "internalType": "address",
          "name": "_to",
          "type": "address"
        },
        {
          "internalType": "uint256",
          "name": "_amount",
          "type": "uint256"
        }
      ],
      "name": "mintTokens",
      "outputs": [],
      "stateMutability": "nonpayable",
      "type": "function"
    },
    {
      "inputs": [],
      "name": "name",
      "outputs": [
        {
          "internalType": "string",
          "name": "",
          "type": "string"
        }
      ],
      "stateMutability": "view",
      "type": "function"
    },
    {
      "inputs": [],
      "name": "symbol",
      "outputs": [
        {
          "internalType": "string",
          "name": "",
          "type": "string"
        }
      ],
      "stateMutability": "view",
      "type": "function"
    },
    {
      "inputs": [],
      "name": "totalSupply",
      "outputs": [
        {
          "internalType": "uint256",
          "name": "",
          "type": "uint256"
        }
      ],
      "stateMutability": "view",
      "type": "function"
    },
    {
      "inputs": [
        {
          "internalType": "address",
          "name": "recipient",
          "type": "address"
        },
        {
          "internalType": "uint256",
          "name": "amount",
          "type": "uint256"
        }
      ],
      "name": "transfer",
      "outputs": [
        {
          "internalType": "bool",
          "name": "",
          "type": "bool"
        }
      ],
      "stateMutability": "nonpayable",
      "type": "function"
    },
    {
      "inputs": [
        {
          "internalType": "address",
          "name": "sender",
          "type": "address"
        },
        {
          "internalType": "address",
          "name": "recipient",
          "type": "address"
        },
        {
          "internalType": "uint256",
          "name": "amount",
          "type": "uint256"
        }
      ],
      "name": "transferFrom",
      "outputs": [
        {
          "internalType": "bool",
          "name": "",
          "type": "bool"
        }
      ],
      "stateMutability": "nonpayable",
      "type": "function"
    }
  ],
  "bytecode": "0x60806040523480156200001157600080fd5b50604051620018e3380380620018e3833981016040819052620000349162000225565b8251839083906200004d906003906020850190620000af565b50805162000063906004906020840190620000af565b5050600580546001600160a01b03199081163317909155600780546001600160a01b03978816908316179055600160065560088054939096169216919091179093555062000305915050565b828054620000bd90620002b2565b90600052602060002090601f016020900481019282620000e157600085556200012c565b82601f10620000fc57805160ff19168380011785556200012c565b828001600101855582156200012c579182015b828111156200012c5782518255916020019190600101906200010f565b506200013a9291506200013e565b5090565b5b808211156200013a57600081556001016200013f565b80516001600160a01b03811681146200016d57600080fd5b919050565b600082601f83011262000183578081fd5b81516001600160401b0380821115620001a057620001a0620002ef565b604051601f8301601f19908116603f01168101908282118183101715620001cb57620001cb620002ef565b81604052838152602092508683858801011115620001e7578485fd5b8491505b838210156200020a5785820183015181830184015290820190620001eb565b838211156200021b57848385830101525b9695505050505050565b600080600080608085870312156200023b578384fd5b620002468562000155565b60208601519094506001600160401b038082111562000263578485fd5b620002718883890162000172565b9450604087015191508082111562000287578384fd5b50620002968782880162000172565b925050620002a76060860162000155565b905092959194509250565b600181811c90821680620002c757607f821691505b60208210811415620002e957634e487b7160e01b600052602260045260246000fd5b50919050565b634e487b7160e01b600052604160045260246000fd5b6115ce80620003156000396000f3fe608060405234801561001057600080fd5b50600436106101165760003560e01c80634162169f116100a2578063a457c2d711610071578063a457c2d714610249578063a9059cbb1461025c578063c4d66de81461026f578063dd62ed3e14610282578063f0dda65c146102bb57600080fd5b80634162169f146101f25780636764765d1461020557806370a082311461021857806395d89b411461024157600080fd5b806318160ddd116100e957806318160ddd1461019657806323b872dd146101a8578063313ce567146101bb5780633610724e146101ca57806339509351146101df57600080fd5b806302546ffc1461011b57806302d05d3f1461014b57806306fdde031461015e578063095ea7b314610173575b600080fd5b60085461012e906001600160a01b031681565b6040516001600160a01b0390911681526020015b60405180910390f35b60075461012e906001600160a01b031681565b6101666102ce565b6040516101429190611429565b6101866101813660046113ae565b610360565b6040519015158152602001610142565b6002545b604051908152602001610142565b6101866101b636600461136e565b610377565b60405160128152602001610142565b6101dd6101d83660046113f9565b610426565b005b6101866101ed3660046113ae565b6109da565b60095461012e906001600160a01b031681565b6101dd6102133660046113f9565b610a16565b61019a6102263660046112fe565b6001600160a01b031660009081526020819052604090205490565b610166610ab2565b6101866102573660046113ae565b610ac1565b61018661026a3660046113ae565b610b5a565b6101dd61027d3660046112fe565b610b67565b61019a610290366004611336565b6001600160a01b03918216600090815260016020908152604080832093909416825291909152205490565b6101dd6102c93660046113ae565b610c4c565b6060600380546102dd9061152f565b80601f01602080910402602001604051908101604052809291908181526020018280546103099061152f565b80156103565780601f1061032b57610100808354040283529160200191610356565b820191906000526020600020905b81548152906001019060200180831161033957829003601f168201915b5050505050905090565b600061036d338484610d08565b5060015b92915050565b6000610384848484610e2d565b6001600160a01b03841660009081526001602090815260408083203384529091529020548281101561040e5760405162461bcd60e51b815260206004820152602860248201527f45524332303a207472616e7366657220616d6f756e74206578636565647320616044820152676c6c6f77616e636560c01b60648201526084015b60405180910390fd5b61041b8533858403610d08565b506001949350505050565b6005546040805163a25eb5d960e01b815290516000926001600160a01b03169163a25eb5d9916004808301926020929190829003018186803b15801561046b57600080fd5b505afa15801561047f573d6000803e3d6000fd5b505050506040513d601f19601f820116820180604052508101906104a3919061131a565b6040516370a0823160e01b81523360048201526001600160a01b0391909116906370a082319060240160206040518083038186803b1580156104e457600080fd5b505afa1580156104f8573d6000803e3d6000fd5b505050506040513d601f19601f8201168201806040525081019061051c9190611411565b600560009054906101000a90046001600160a01b03166001600160a01b0316637678bfae6040518163ffffffff1660e01b815260040160206040518083038186803b15801561056a57600080fd5b505afa15801561057e573d6000803e3d6000fd5b505050506040513d601f19601f820116820180604052508101906105a29190611411565b1161063057600560009054906101000a90046001600160a01b03166001600160a01b0316636b6f4a9d6040518163ffffffff1660e01b815260040160206040518083038186803b1580156105f557600080fd5b505afa158015610609573d6000803e3d6000fd5b505050506040513d601f19601f8201168201806040525081019061062d9190611411565b90505b600554600754604051632eb4ede360e01b81526001600160a01b0391821660048201526000926106bc921690632eb4ede39060240160206040518083038186803b15801561067d57600080fd5b505afa158015610691573d6000803e3d6000fd5b505050506040513d601f19601f820116820180604052508101906106b59190611411565b8490610ffc565b905060006107598261075485600560009054906101000a90046001600160a01b03166001600160a01b031663ddca3f436040518163ffffffff1660e01b815260040160206040518083038186803b15801561071657600080fd5b505afa15801561072a573d6000803e3d6000fd5b505050506040513d601f19601f8201168201806040525081019061074e9190611411565b90611063565b6110b9565b6008546009549192506001600160a01b03908116916323b872dd913391166107818686611063565b6040516001600160e01b031960e086901b1681526001600160a01b0393841660048201529290911660248301526044820152606401602060405180830381600087803b1580156107d057600080fd5b505af11580156107e4573d6000803e3d6000fd5b505050506040513d601f19601f8201168201806040525081019061080891906113d9565b6108245760405162461bcd60e51b81526004016104059061147c565b60085460055460408051622fcfcb60e31b815290516001600160a01b03938416936323b872dd93339391169163017e7e5891600480820192602092909190829003018186803b15801561087657600080fd5b505afa15801561088a573d6000803e3d6000fd5b505050506040513d601f19601f820116820180604052508101906108ae919061131a565b6040516001600160e01b031960e085901b1681526001600160a01b0392831660048201529116602482015260448101849052606401602060405180830381600087803b1580156108fd57600080fd5b505af1158015610911573d6000803e3d6000fd5b505050506040513d601f19601f8201168201806040525081019061093591906113d9565b6109515760405162461bcd60e51b81526004016104059061147c565b61096c3361096786670de0b6b3a7640000610ffc565b6110d9565b600960009054906101000a90046001600160a01b03166001600160a01b031663af04c0c96040518163ffffffff1660e01b8152600401600060405180830381600087803b1580156109bc57600080fd5b505af11580156109d0573d6000803e3d6000fd5b5050505050505050565b3360008181526001602090815260408083206001600160a01b0387168452909152812054909161036d918590610a119086906114c1565b610d08565b600654600114610a5c5760405162461bcd60e51b815260206004820152601160248201527016195b191bdc98591bce881313d0d2d151607a1b6044820152606401610405565b6000600655610a6b33826111b8565b6040805130815260208101839052338183015290517fc72d991da04c50c6faedc5b433a9ea6c6ec3b1810db2d1e2c728b80f82a2b0fd9181900360600190a1506001600655565b6060600480546102dd9061152f565b3360009081526001602090815260408083206001600160a01b038616845290915281205482811015610b435760405162461bcd60e51b815260206004820152602560248201527f45524332303a2064656372656173656420616c6c6f77616e63652062656c6f77604482015264207a65726f60d81b6064820152608401610405565b610b503385858403610d08565b5060019392505050565b600061036d338484610e2d565b6005546001600160a01b03163314610bd15760405162461bcd60e51b815260206004820152602760248201527f58656c646f7261646f3a206f6e6c792063726561746f7220666163746f727920604482015266185b1b1bddd95960ca1b6064820152608401610405565b6009546001600160a01b031615610c2a5760405162461bcd60e51b815260206004820152601c60248201527f58656c646f7261646f3a2044414f20616c7265616479206164646564000000006044820152606401610405565b600980546001600160a01b0319166001600160a01b0392909216919091179055565b6009546001600160a01b03163314610cb25760405162461bcd60e51b815260206004820152602360248201527f58656c646f7261646f3a206f6e6c792064616f2063616e206d696e7420746f6b604482015262656e7360e81b6064820152608401610405565b610cbc82826110d9565b60408051308152602081018390526001600160a01b0384168183015290517f73f1290e6ba3ca3d26393a68adc04ff6237c3856cf7e180ccd18f14acd67ef629181900360600190a15050565b6001600160a01b038316610d6a5760405162461bcd60e51b8152602060048201526024808201527f45524332303a20617070726f76652066726f6d20746865207a65726f206164646044820152637265737360e01b6064820152608401610405565b6001600160a01b038216610dcb5760405162461bcd60e51b815260206004820152602260248201527f45524332303a20617070726f766520746f20746865207a65726f206164647265604482015261737360f01b6064820152608401610405565b6001600160a01b0383811660008181526001602090815260408083209487168084529482529182902085905590518481527f8c5be1e5ebec7d5bd14f71427d1e84f3dd0314c0f7b2291e5b200ac8c7c3b92591015b60405180910390a3505050565b6001600160a01b038316610e915760405162461bcd60e51b815260206004820152602560248201527f45524332303a207472616e736665722066726f6d20746865207a65726f206164604482015264647265737360d81b6064820152608401610405565b6001600160a01b038216610ef35760405162461bcd60e51b815260206004820152602360248201527f45524332303a207472616e7366657220746f20746865207a65726f206164647260448201526265737360e81b6064820152608401610405565b6001600160a01b03831660009081526020819052604090205481811015610f6b5760405162461bcd60e51b815260206004820152602660248201527f45524332303a207472616e7366657220616d6f756e7420657863656564732062604482015265616c616e636560d01b6064820152608401610405565b6001600160a01b03808516600090815260208190526040808220858503905591851681529081208054849290610fa29084906114c1565b92505081905550826001600160a01b0316846001600160a01b03167fddf252ad1be2c89b69c2b068fc378daa952ba7f163c4a11628f55a4df523b3ef84604051610fee91815260200190565b60405180910390a350505050565b60008115806110205750828261101281836114f9565b925061101e90836114d9565b145b6103715760405162461bcd60e51b815260206004820152601460248201527364732d6d6174682d6d756c2d6f766572666c6f7760601b6044820152606401610405565b6000826110708382611518565b91508111156103715760405162461bcd60e51b815260206004820152601560248201527464732d6d6174682d7375622d756e646572666c6f7760581b6044820152606401610405565b60006127106110c88484610ffc565b6110d291906114d9565b9392505050565b6001600160a01b03821661112f5760405162461bcd60e51b815260206004820152601f60248201527f45524332303a206d696e7420746f20746865207a65726f2061646472657373006044820152606401610405565b806002600082825461114191906114c1565b90915550506001600160a01b0382166000908152602081905260408120805483929061116e9084906114c1565b90915550506040518181526001600160a01b038316906000907fddf252ad1be2c89b69c2b068fc378daa952ba7f163c4a11628f55a4df523b3ef9060200160405180910390a35050565b6001600160a01b0382166112185760405162461bcd60e51b815260206004820152602160248201527f45524332303a206275726e2066726f6d20746865207a65726f206164647265736044820152607360f81b6064820152608401610405565b6001600160a01b0382166000908152602081905260409020548181101561128c5760405162461bcd60e51b815260206004820152602260248201527f45524332303a206275726e20616d6f756e7420657863656564732062616c616e604482015261636560f01b6064820152608401610405565b6001600160a01b03831660009081526020819052604081208383039055600280548492906112bb908490611518565b90915550506040518281526000906001600160a01b038516907fddf252ad1be2c89b69c2b068fc378daa952ba7f163c4a11628f55a4df523b3ef90602001610e20565b60006020828403121561130f578081fd5b81356110d281611580565b60006020828403121561132b578081fd5b81516110d281611580565b60008060408385031215611348578081fd5b823561135381611580565b9150602083013561136381611580565b809150509250929050565b600080600060608486031215611382578081fd5b833561138d81611580565b9250602084013561139d81611580565b929592945050506040919091013590565b600080604083850312156113c0578182fd5b82356113cb81611580565b946020939093013593505050565b6000602082840312156113ea578081fd5b815180151581146110d2578182fd5b60006020828403121561140a578081fd5b5035919050565b600060208284031215611422578081fd5b5051919050565b6000602080835283518082850152825b8181101561145557858101830151858201604001528201611439565b818111156114665783604083870101525b50601f01601f1916929092016040019392505050565b60208082526025908201527f58656c646f7261646f3a206261736520746f6b656e207472616e736665722066604082015264185a5b195960da1b606082015260800190565b600082198211156114d4576114d461156a565b500190565b6000826114f457634e487b7160e01b81526012600452602481fd5b500490565b60008160001904831182151516156115135761151361156a565b500290565b60008282101561152a5761152a61156a565b500390565b600181811c9082168061154357607f821691505b6020821081141561156457634e487b7160e01b600052602260045260246000fd5b50919050565b634e487b7160e01b600052601160045260246000fd5b6001600160a01b038116811461159557600080fd5b5056fea26469706673582212204dc88fff8b1acf3cf38c2573ffd43d0972659ab8de683e72e045b7c9be5bae3e64736f6c63430008040033",
  "linkReferences": {},
  "deployedLinkReferences": {}
}