{
  "_format": "hh-sol-artifact-1",
  "contractName": "CreatorNFT_LT",
  "sourceName": "contracts/LoyaltyTokens/CreatorNFT_LT.sol",
  "abi": [
    {
      "inputs": [
        {
          "internalType": "address",
          "name": "_creator",
          "type": "address"
        },
        {
          "internalType": "string",
          "name": "_name",
          "type": "string"
        },
        {
          "internalType": "string",
          "name": "_symbol",
          "type": "string"
        }
      ],
      "stateMutability": "nonpayable",
      "type": "constructor"
    },
    {
      "anonymous": false,
      "inputs": [
        {
          "indexed": true,
          "internalType": "address",
          "name": "owner",
          "type": "address"
        },
        {
          "indexed": true,
          "internalType": "address",
          "name": "approved",
          "type": "address"
        },
        {
          "indexed": true,
          "internalType": "uint256",
          "name": "tokenId",
          "type": "uint256"
        }
      ],
      "name": "Approval",
      "type": "event"
    },
    {
      "anonymous": false,
      "inputs": [
        {
          "indexed": true,
          "internalType": "address",
          "name": "owner",
          "type": "address"
        },
        {
          "indexed": true,
          "internalType": "address",
          "name": "operator",
          "type": "address"
        },
        {
          "indexed": false,
          "internalType": "bool",
          "name": "approved",
          "type": "bool"
        }
      ],
      "name": "ApprovalForAll",
      "type": "event"
    },
    {
      "anonymous": false,
      "inputs": [
        {
          "indexed": true,
          "internalType": "address",
          "name": "from",
          "type": "address"
        },
        {
          "indexed": true,
          "internalType": "address",
          "name": "to",
          "type": "address"
        },
        {
          "indexed": true,
          "internalType": "uint256",
          "name": "tokenId",
          "type": "uint256"
        }
      ],
      "name": "Transfer",
      "type": "event"
    },
    {
      "inputs": [
        {
          "internalType": "address",
          "name": "to",
          "type": "address"
        },
        {
          "internalType": "uint256",
          "name": "tokenId",
          "type": "uint256"
        }
      ],
      "name": "approve",
      "outputs": [],
      "stateMutability": "nonpayable",
      "type": "function"
    },
    {
      "inputs": [
        {
          "internalType": "address",
          "name": "owner",
          "type": "address"
        }
      ],
      "name": "balanceOf",
      "outputs": [
        {
          "internalType": "uint256",
          "name": "",
          "type": "uint256"
        }
      ],
      "stateMutability": "view",
      "type": "function"
    },
    {
      "inputs": [
        {
          "internalType": "string[]",
          "name": "tokenURI",
          "type": "string[]"
        },
        {
          "internalType": "address",
          "name": "_vault",
          "type": "address"
        }
      ],
      "name": "createBatchToken",
      "outputs": [
        {
          "internalType": "uint256",
          "name": "start",
          "type": "uint256"
        },
        {
          "internalType": "uint256",
          "name": "end",
          "type": "uint256"
        }
      ],
      "stateMutability": "nonpayable",
      "type": "function"
    },
    {
      "inputs": [
        {
          "internalType": "string",
          "name": "tokenURI",
          "type": "string"
        },
        {
          "internalType": "address",
          "name": "_vault",
          "type": "address"
        }
      ],
      "name": "createToken",
      "outputs": [
        {
          "internalType": "uint256",
          "name": "",
          "type": "uint256"
        }
      ],
      "stateMutability": "nonpayable",
      "type": "function"
    },
    {
      "inputs": [],
      "name": "creator",
      "outputs": [
        {
          "internalType": "address",
          "name": "",
          "type": "address"
        }
      ],
      "stateMutability": "view",
      "type": "function"
    },
    {
      "inputs": [
        {
          "internalType": "uint256",
          "name": "tokenId",
          "type": "uint256"
        }
      ],
      "name": "getApproved",
      "outputs": [
        {
          "internalType": "address",
          "name": "",
          "type": "address"
        }
      ],
      "stateMutability": "view",
      "type": "function"
    },
    {
      "inputs": [
        {
          "internalType": "address",
          "name": "owner",
          "type": "address"
        },
        {
          "internalType": "address",
          "name": "operator",
          "type": "address"
        }
      ],
      "name": "isApprovedForAll",
      "outputs": [
        {
          "internalType": "bool",
          "name": "",
          "type": "bool"
        }
      ],
      "stateMutability": "view",
      "type": "function"
    },
    {
      "inputs": [],
      "name": "name",
      "outputs": [
        {
          "internalType": "string",
          "name": "",
          "type": "string"
        }
      ],
      "stateMutability": "view",
      "type": "function"
    },
    {
      "inputs": [
        {
          "internalType": "uint256",
          "name": "tokenId",
          "type": "uint256"
        }
      ],
      "name": "ownerOf",
      "outputs": [
        {
          "internalType": "address",
          "name": "",
          "type": "address"
        }
      ],
      "stateMutability": "view",
      "type": "function"
    },
    {
      "inputs": [
        {
          "internalType": "address",
          "name": "from",
          "type": "address"
        },
        {
          "internalType": "address",
          "name": "to",
          "type": "address"
        },
        {
          "internalType": "uint256",
          "name": "tokenId",
          "type": "uint256"
        }
      ],
      "name": "safeTransferFrom",
      "outputs": [],
      "stateMutability": "nonpayable",
      "type": "function"
    },
    {
      "inputs": [
        {
          "internalType": "address",
          "name": "from",
          "type": "address"
        },
        {
          "internalType": "address",
          "name": "to",
          "type": "address"
        },
        {
          "internalType": "uint256",
          "name": "tokenId",
          "type": "uint256"
        },
        {
          "internalType": "bytes",
          "name": "_data",
          "type": "bytes"
        }
      ],
      "name": "safeTransferFrom",
      "outputs": [],
      "stateMutability": "nonpayable",
      "type": "function"
    },
    {
      "inputs": [
        {
          "internalType": "address",
          "name": "operator",
          "type": "address"
        },
        {
          "internalType": "bool",
          "name": "approved",
          "type": "bool"
        }
      ],
      "name": "setApprovalForAll",
      "outputs": [],
      "stateMutability": "nonpayable",
      "type": "function"
    },
    {
      "inputs": [
        {
          "internalType": "bytes4",
          "name": "interfaceId",
          "type": "bytes4"
        }
      ],
      "name": "supportsInterface",
      "outputs": [
        {
          "internalType": "bool",
          "name": "",
          "type": "bool"
        }
      ],
      "stateMutability": "view",
      "type": "function"
    },
    {
      "inputs": [],
      "name": "symbol",
      "outputs": [
        {
          "internalType": "string",
          "name": "",
          "type": "string"
        }
      ],
      "stateMutability": "view",
      "type": "function"
    },
    {
      "inputs": [
        {
          "internalType": "uint256",
          "name": "tokenId",
          "type": "uint256"
        }
      ],
      "name": "tokenURI",
      "outputs": [
        {
          "internalType": "string",
          "name": "",
          "type": "string"
        }
      ],
      "stateMutability": "view",
      "type": "function"
    },
    {
      "inputs": [
        {
          "internalType": "address",
          "name": "from",
          "type": "address"
        },
        {
          "internalType": "address",
          "name": "to",
          "type": "address"
        },
        {
          "internalType": "uint256",
          "name": "tokenId",
          "type": "uint256"
        }
      ],
      "name": "transferFrom",
      "outputs": [],
      "stateMutability": "nonpayable",
      "type": "function"
    }
  ],
  "bytecode": "0x60806040523480156200001157600080fd5b5060405162001c5338038062001c538339810160408190526200003491620001f1565b8151829082906200004d90600090602085019062000098565b5080516200006390600190602084019062000098565b5050600880546001600160a01b039095166001600160a01b0319958616179055505060098054909216331790915550620002ca565b828054620000a69062000277565b90600052602060002090601f016020900481019282620000ca576000855562000115565b82601f10620000e557805160ff191683800117855562000115565b8280016001018555821562000115579182015b8281111562000115578251825591602001919060010190620000f8565b506200012392915062000127565b5090565b5b8082111562000123576000815560010162000128565b600082601f8301126200014f578081fd5b81516001600160401b03808211156200016c576200016c620002b4565b604051601f8301601f19908116603f01168101908282118183101715620001975762000197620002b4565b81604052838152602092508683858801011115620001b3578485fd5b8491505b83821015620001d65785820183015181830184015290820190620001b7565b83821115620001e757848385830101525b9695505050505050565b60008060006060848603121562000206578283fd5b83516001600160a01b03811681146200021d578384fd5b60208501519093506001600160401b03808211156200023a578384fd5b62000248878388016200013e565b935060408601519150808211156200025e578283fd5b506200026d868287016200013e565b9150509250925092565b600181811c908216806200028c57607f821691505b60208210811415620002ae57634e487b7160e01b600052602260045260246000fd5b50919050565b634e487b7160e01b600052604160045260246000fd5b61197980620002da6000396000f3fe608060405234801561001057600080fd5b50600436106101005760003560e01c806370a0823111610097578063b88d4fde11610066578063b88d4fde1461021d578063bc7ee4ac14610230578063c87b56dd14610258578063e985e9c51461026b57600080fd5b806370a08231146101ce57806395d89b41146101ef578063a2119377146101f7578063a22cb4651461020a57600080fd5b8063095ea7b3116100d3578063095ea7b31461018057806323b872dd1461019557806342842e0e146101a85780636352211e146101bb57600080fd5b806301ffc9a71461010557806302d05d3f1461012d57806306fdde0314610158578063081812fc1461016d575b600080fd5b6101186101133660046115fd565b6102a7565b60405190151581526020015b60405180910390f35b600854610140906001600160a01b031681565b6040516001600160a01b039091168152602001610124565b6101606102f9565b6040516101249190611728565b61014061017b366004611678565b61038b565b61019361018e366004611500565b610418565b005b6101936101a3366004611412565b61052e565b6101936101b6366004611412565b61055f565b6101406101c9366004611678565b61057a565b6101e16101dc3660046113cf565b6105f1565b604051908152602001610124565b610160610678565b6101e1610205366004611635565b610687565b6101936102183660046114c6565b61072a565b61019361022b36600461144d565b6107ef565b61024361023e366004611529565b610827565b60408051928352602083019190915201610124565b610160610266366004611678565b61092c565b6101186102793660046113e9565b6001600160a01b03918216600090815260056020908152604080832093909416825291909152205460ff1690565b60006001600160e01b031982166380ac58cd60e01b14806102d857506001600160e01b03198216635b5e139f60e01b145b806102f357506301ffc9a760e01b6001600160e01b03198316145b92915050565b6060600080546103089061187e565b80601f01602080910402602001604051908101604052809291908181526020018280546103349061187e565b80156103815780601f1061035657610100808354040283529160200191610381565b820191906000526020600020905b81548152906001019060200180831161036457829003601f168201915b5050505050905090565b600061039682610aa3565b6103fc5760405162461bcd60e51b815260206004820152602c60248201527f4552433732313a20617070726f76656420717565727920666f72206e6f6e657860448201526b34b9ba32b73a103a37b5b2b760a11b60648201526084015b60405180910390fd5b506000908152600460205260409020546001600160a01b031690565b60006104238261057a565b9050806001600160a01b0316836001600160a01b031614156104915760405162461bcd60e51b815260206004820152602160248201527f4552433732313a20617070726f76616c20746f2063757272656e74206f776e656044820152603960f91b60648201526084016103f3565b336001600160a01b03821614806104ad57506104ad8133610279565b61051f5760405162461bcd60e51b815260206004820152603860248201527f4552433732313a20617070726f76652063616c6c6572206973206e6f74206f7760448201527f6e6572206e6f7220617070726f76656420666f7220616c6c000000000000000060648201526084016103f3565b6105298383610ac0565b505050565b6105383382610b2e565b6105545760405162461bcd60e51b81526004016103f39061178d565b610529838383610c14565b610529838383604051806020016040528060008152506107ef565b6000818152600260205260408120546001600160a01b0316806102f35760405162461bcd60e51b815260206004820152602960248201527f4552433732313a206f776e657220717565727920666f72206e6f6e657869737460448201526832b73a103a37b5b2b760b91b60648201526084016103f3565b60006001600160a01b03821661065c5760405162461bcd60e51b815260206004820152602a60248201527f4552433732313a2062616c616e636520717565727920666f7220746865207a65604482015269726f206164647265737360b01b60648201526084016103f3565b506001600160a01b031660009081526003602052604090205490565b6060600180546103089061187e565b6009546000906001600160a01b031633146106f45760405162461bcd60e51b815260206004820152602760248201527f58656c646f7261646f3a206f6e6c79207661756c742063616e2063726561746560448201526620746f6b656e7360c81b60648201526084016103f3565b610702600780546001019055565b600061070d60075490565b90506107198382610db4565b6107238185610ee7565b9392505050565b6001600160a01b0382163314156107835760405162461bcd60e51b815260206004820152601960248201527f4552433732313a20617070726f766520746f2063616c6c65720000000000000060448201526064016103f3565b3360008181526005602090815260408083206001600160a01b03871680855290835292819020805460ff191686151590811790915590519081529192917f17307eab39ab6107e8899845ad3d59bd9653f200f220920489ca2b5937696c31910160405180910390a35050565b6107f93383610b2e565b6108155760405162461bcd60e51b81526004016103f39061178d565b61082184848484610f72565b50505050565b60095460009081906001600160a01b031633146108975760405162461bcd60e51b815260206004820152602860248201527f58656c646f7261646f3a206f6e6c79207661756c742063616e206374726561746044820152676520746f6b656e7360c01b60648201526084016103f3565b6007546108a590600161180f565b915060005b845181101561091e576108c1600780546001019055565b6108d3846108ce60075490565b610db4565b61090c6108df60075490565b8683815181106108ff57634e487b7160e01b600052603260045260246000fd5b6020026020010151610ee7565b80610916816118b9565b9150506108aa565b506007545b90509250929050565b606061093782610aa3565b61099d5760405162461bcd60e51b815260206004820152603160248201527f45524337323155524953746f726167653a2055524920717565727920666f72206044820152703737b732bc34b9ba32b73a103a37b5b2b760791b60648201526084016103f3565b600082815260066020526040812080546109b69061187e565b80601f01602080910402602001604051908101604052809291908181526020018280546109e29061187e565b8015610a2f5780601f10610a0457610100808354040283529160200191610a2f565b820191906000526020600020905b815481529060010190602001808311610a1257829003601f168201915b505050505090506000610a4d60408051602081019091526000815290565b9050805160001415610a60575092915050565b815115610a92578082604051602001610a7a9291906116bc565b60405160208183030381529060405292505050919050565b610a9b84610fa5565b949350505050565b6000908152600260205260409020546001600160a01b0316151590565b600081815260046020526040902080546001600160a01b0319166001600160a01b0384169081179091558190610af58261057a565b6001600160a01b03167f8c5be1e5ebec7d5bd14f71427d1e84f3dd0314c0f7b2291e5b200ac8c7c3b92560405160405180910390a45050565b6000610b3982610aa3565b610b9a5760405162461bcd60e51b815260206004820152602c60248201527f4552433732313a206f70657261746f7220717565727920666f72206e6f6e657860448201526b34b9ba32b73a103a37b5b2b760a11b60648201526084016103f3565b6000610ba58361057a565b9050806001600160a01b0316846001600160a01b03161480610be05750836001600160a01b0316610bd58461038b565b6001600160a01b0316145b80610a9b57506001600160a01b0380821660009081526005602090815260408083209388168352929052205460ff16610a9b565b826001600160a01b0316610c278261057a565b6001600160a01b031614610c8f5760405162461bcd60e51b815260206004820152602960248201527f4552433732313a207472616e73666572206f6620746f6b656e2074686174206960448201526839903737ba1037bbb760b91b60648201526084016103f3565b6001600160a01b038216610cf15760405162461bcd60e51b8152602060048201526024808201527f4552433732313a207472616e7366657220746f20746865207a65726f206164646044820152637265737360e01b60648201526084016103f3565b610cfc600082610ac0565b6001600160a01b0383166000908152600360205260408120805460019290610d2590849061183b565b90915550506001600160a01b0382166000908152600360205260408120805460019290610d5390849061180f565b909155505060008181526002602052604080822080546001600160a01b0319166001600160a01b0386811691821790925591518493918716917fddf252ad1be2c89b69c2b068fc378daa952ba7f163c4a11628f55a4df523b3ef91a4505050565b6001600160a01b038216610e0a5760405162461bcd60e51b815260206004820181905260248201527f4552433732313a206d696e7420746f20746865207a65726f206164647265737360448201526064016103f3565b610e1381610aa3565b15610e605760405162461bcd60e51b815260206004820152601c60248201527f4552433732313a20746f6b656e20616c7265616479206d696e7465640000000060448201526064016103f3565b6001600160a01b0382166000908152600360205260408120805460019290610e8990849061180f565b909155505060008181526002602052604080822080546001600160a01b0319166001600160a01b03861690811790915590518392907fddf252ad1be2c89b69c2b068fc378daa952ba7f163c4a11628f55a4df523b3ef908290a45050565b610ef082610aa3565b610f535760405162461bcd60e51b815260206004820152602e60248201527f45524337323155524953746f726167653a2055524920736574206f66206e6f6e60448201526d32bc34b9ba32b73a103a37b5b2b760911b60648201526084016103f3565b60008281526006602090815260409091208251610529928401906112a3565b610f7d848484610c14565b610f898484848461107c565b6108215760405162461bcd60e51b81526004016103f39061173b565b6060610fb082610aa3565b6110145760405162461bcd60e51b815260206004820152602f60248201527f4552433732314d657461646174613a2055524920717565727920666f72206e6f60448201526e3732bc34b9ba32b73a103a37b5b2b760891b60648201526084016103f3565b600061102b60408051602081019091526000815290565b9050600081511161104b5760405180602001604052806000815250610723565b8061105584611189565b6040516020016110669291906116bc565b6040516020818303038152906040529392505050565b60006001600160a01b0384163b1561117e57604051630a85bd0160e11b81526001600160a01b0385169063150b7a02906110c09033908990889088906004016116eb565b602060405180830381600087803b1580156110da57600080fd5b505af192505050801561110a575060408051601f3d908101601f1916820190925261110791810190611619565b60015b611164573d808015611138576040519150601f19603f3d011682016040523d82523d6000602084013e61113d565b606091505b50805161115c5760405162461bcd60e51b81526004016103f39061173b565b805181602001fd5b6001600160e01b031916630a85bd0160e11b149050610a9b565b506001949350505050565b6060816111ad5750506040805180820190915260018152600360fc1b602082015290565b8160005b81156111d757806111c1816118b9565b91506111d09050600a83611827565b91506111b1565b60008167ffffffffffffffff81111561120057634e487b7160e01b600052604160045260246000fd5b6040519080825280601f01601f19166020018201604052801561122a576020820181803683370190505b5090505b8415610a9b5761123f60018361183b565b915061124c600a866118d4565b61125790603061180f565b60f81b81838151811061127a57634e487b7160e01b600052603260045260246000fd5b60200101906001600160f81b031916908160001a90535061129c600a86611827565b945061122e565b8280546112af9061187e565b90600052602060002090601f0160209004810192826112d15760008555611317565b82601f106112ea57805160ff1916838001178555611317565b82800160010185558215611317579182015b828111156113175782518255916020019190600101906112fc565b50611323929150611327565b5090565b5b808211156113235760008155600101611328565b600067ffffffffffffffff83111561135657611356611914565b611369601f8401601f19166020016117de565b905082815283838301111561137d57600080fd5b828260208301376000602084830101529392505050565b80356001600160a01b03811681146113ab57600080fd5b919050565b600082601f8301126113c0578081fd5b6107238383356020850161133c565b6000602082840312156113e0578081fd5b61072382611394565b600080604083850312156113fb578081fd5b61140483611394565b915061092360208401611394565b600080600060608486031215611426578081fd5b61142f84611394565b925061143d60208501611394565b9150604084013590509250925092565b60008060008060808587031215611462578081fd5b61146b85611394565b935061147960208601611394565b925060408501359150606085013567ffffffffffffffff81111561149b578182fd5b8501601f810187136114ab578182fd5b6114ba8782356020840161133c565b91505092959194509250565b600080604083850312156114d8578182fd5b6114e183611394565b9150602083013580151581146114f5578182fd5b809150509250929050565b60008060408385031215611512578182fd5b61151b83611394565b946020939093013593505050565b6000806040838503121561153b578182fd5b823567ffffffffffffffff80821115611552578384fd5b818501915085601f830112611565578384fd5b813560208282111561157957611579611914565b8160051b6115888282016117de565b8381528281019086840183880185018c10156115a257898afd5b8993505b858410156115df578035878111156115bc578a8bfd5b6115ca8d87838c01016113b0565b845250600193909301929184019184016115a6565b5097506115f0915050878201611394565b9450505050509250929050565b60006020828403121561160e578081fd5b81356107238161192a565b60006020828403121561162a578081fd5b81516107238161192a565b60008060408385031215611647578182fd5b823567ffffffffffffffff81111561165d578283fd5b611669858286016113b0565b92505061092360208401611394565b600060208284031215611689578081fd5b5035919050565b600081518084526116a8816020860160208601611852565b601f01601f19169290920160200192915050565b600083516116ce818460208801611852565b8351908301906116e2818360208801611852565b01949350505050565b6001600160a01b038581168252841660208201526040810183905260806060820181905260009061171e90830184611690565b9695505050505050565b6020815260006107236020830184611690565b60208082526032908201527f4552433732313a207472616e7366657220746f206e6f6e20455243373231526560408201527131b2b4bb32b91034b6b83632b6b2b73a32b960711b606082015260800190565b60208082526031908201527f4552433732313a207472616e736665722063616c6c6572206973206e6f74206f6040820152701ddb995c881b9bdc88185c1c1c9bdd9959607a1b606082015260800190565b604051601f8201601f1916810167ffffffffffffffff8111828210171561180757611807611914565b604052919050565b60008219821115611822576118226118e8565b500190565b600082611836576118366118fe565b500490565b60008282101561184d5761184d6118e8565b500390565b60005b8381101561186d578181015183820152602001611855565b838111156108215750506000910152565b600181811c9082168061189257607f821691505b602082108114156118b357634e487b7160e01b600052602260045260246000fd5b50919050565b60006000198214156118cd576118cd6118e8565b5060010190565b6000826118e3576118e36118fe565b500690565b634e487b7160e01b600052601160045260246000fd5b634e487b7160e01b600052601260045260246000fd5b634e487b7160e01b600052604160045260246000fd5b6001600160e01b03198116811461194057600080fd5b5056fea26469706673582212205d3d52d9f27cffaea58771b614a6b81211da91bc5f74cf02e3d1438f8f804e3e64736f6c63430008040033",
  "linkReferences": {},
  "deployedLinkReferences": {}
}