{
  "_format": "hh-sol-artifact-1",
  "contractName": "XeldoradoDeployer",
  "sourceName": "contracts/LoyaltyTokens/XeldoradoDeployer.sol",
  "abi": [
    {
      "inputs": [
        {
          "internalType": "address",
          "name": "creatorfactory",
          "type": "address"
        },
        {
          "internalType": "string",
          "name": "_name",
          "type": "string"
        },
        {
          "internalType": "string",
          "name": "_symbol",
          "type": "string"
        },
        {
          "internalType": "uint256",
          "name": "_creatorSaleFeeNative",
          "type": "uint256"
        },
        {
          "internalType": "uint256",
          "name": "_creatorSaleFeeUSD",
          "type": "uint256"
        }
      ],
      "stateMutability": "nonpayable",
      "type": "constructor"
    },
    {
      "inputs": [],
      "name": "dao",
      "outputs": [
        {
          "internalType": "address",
          "name": "",
          "type": "address"
        }
      ],
      "stateMutability": "view",
      "type": "function"
    },
    {
      "inputs": [],
      "name": "token",
      "outputs": [
        {
          "internalType": "address",
          "name": "",
          "type": "address"
        }
      ],
      "stateMutability": "view",
      "type": "function"
    },
    {
      "inputs": [],
      "name": "vault",
      "outputs": [
        {
          "internalType": "address",
          "name": "",
          "type": "address"
        }
      ],
      "stateMutability": "view",
      "type": "function"
    }
  ],
  "bytecode": "0x608060405234801561001057600080fd5b5060405161759038038061759083398101604081905261002f91610252565b600060405161003d90610176565b604051809103906000f080158015610059573d6000803e3d6000fd5b50600080546001600160a01b0319166001600160a01b0383161781556040519192509061008590610183565b604051809103906000f0801580156100a1573d6000803e3d6000fd5b50600180546001600160a01b0319166001600160a01b0383811691821790925560005460405162185d5160e31b81529394508a83169362c2ea88936100f793339390929116908c908c908c908c90600401610302565b602060405180830381600087803b15801561011157600080fd5b505af1158015610125573d6000803e3d6000fd5b505050506040513d601f19601f820116820180604052508101906101499190610231565b600280546001600160a01b0319166001600160a01b0392909216919091179055506103a595505050505050565b6137dd8061047c83390190565b61393780613c5983390190565b80516001600160a01b03811681146101a757600080fd5b919050565b600082601f8301126101bc578081fd5b81516001600160401b03808211156101d6576101d661038f565b604051601f8301601f19908116603f011681019082821181831017156101fe576101fe61038f565b81604052838152866020858801011115610216578485fd5b61022784602083016020890161035f565b9695505050505050565b600060208284031215610242578081fd5b61024b82610190565b9392505050565b600080600080600060a08688031215610269578081fd5b61027286610190565b60208701519095506001600160401b038082111561028e578283fd5b61029a89838a016101ac565b955060408801519150808211156102af578283fd5b506102bc888289016101ac565b606088015160809098015196999598509695949350505050565b600081518084526102ee81602086016020860161035f565b601f01601f19169290920160200192915050565b6001600160a01b03888116825287811660208301528616604082015260e060608201819052600090610336908301876102d6565b828103608084015261034881876102d6565b60a0840195909552505060c0015295945050505050565b60005b8381101561037a578181015183820152602001610362565b83811115610389576000848401525b50505050565b634e487b7160e01b600052604160045260246000fd5b60c9806103b36000396000f3fe6080604052348015600f57600080fd5b5060043610603c5760003560e01c80634162169f146041578063fbfa77cf14606f578063fc0c546a146081575b600080fd5b6001546053906001600160a01b031681565b6040516001600160a01b03909116815260200160405180910390f35b6000546053906001600160a01b031681565b6002546053906001600160a01b03168156fea264697066735822122049455322598bc09f57663a753591f524c4107b2ca307b45764f0dd98b7afe69c64736f6c63430008040033608060405234801561001057600080fd5b5060006005556001600a556137b38061002a6000396000f3fe60806040523480156200001157600080fd5b5060043610620000ca5760003560e01c806302d05d3f14620000cf5780632c466b2314620000fb5780632d6f713f146200012d578063604503bc14620001465780636cab876f146200015d5780637a5f270d14620001675780637cc7175a14620001715780637fd97758146200019457806387534e2314620001c0578063af346f2014620001d7578063b7f34fc914620001e1578063d56d229d14620001f8578063f6b76147146200020c578063fc0c546a1462000223575b600080fd5b600054620000e3906001600160a01b031681565b604051620000f29190620018b9565b60405180910390f35b6200011e6200010c36600462001815565b60046020526000908152604090205481565b604051908152602001620000f2565b620001446200013e366004620016da565b62000237565b005b620001446200015736600462001796565b6200051f565b6200011e60055481565b6200011e60075481565b6200011e6200018236600462001815565b60036020526000908152604090205481565b620000e3620001a536600462001815565b6002602052600090815260409020546001600160a01b031681565b62000144620001d13660046200164a565b62000961565b6200011e60065481565b62000144620001f2366004620015f7565b62000a5f565b600954620000e3906001600160a01b031681565b620001446200021d36600462001796565b6200109e565b600154620000e3906001600160a01b031681565b6000546001600160a01b0316331480620002d85750600b54600054604051630437883560e11b81526001600160a01b039283169263086f106a9262000284929116903390600401620018cd565b60206040518083038186803b1580156200029d57600080fd5b505afa158015620002b2573d6000803e3d6000fd5b505050506040513d601f19601f82011682018060405250810190620002d89190620017f3565b620003005760405162461bcd60e51b8152600401620002f79062001a5b565b60405180910390fd5b600a54600114620003255760405162461bcd60e51b8152600401620002f790620019c7565b6000600a819055600854604051632f1fb92b60e21b815282916001600160a01b03169063bc7ee4ac906200036090869030906004016200194f565b6040805180830381600087803b1580156200037a57600080fd5b505af11580156200038f573d6000803e3d6000fd5b505050506040513d601f19601f82011682018060405250810190620003b5919062001847565b9150915060005b620003c8838362001b10565b620003d590600162001af5565b8110156200051457600854600554600090815260026020526040902080546001600160a01b0319166001600160a01b039092169190911790556200041a818462001af5565b600580546000908152600360205260408120929092558054600192906200044390849062001af5565b925050819055507fe3decf3664bda6931ed898f66cb86488a5e17f80d13896298ee9afde383dcf4f60026000600160055462000480919062001b10565b815260200190815260200160002060009054906101000a90046001600160a01b0316600360006001600554620004b7919062001b10565b8152602001908152602001600020546001600554620004d7919062001b10565b604080516001600160a01b03909416845260208401929092529082015260600160405180910390a1806200050b8162001b2a565b915050620003bc565b50506001600a555050565b6000546001600160a01b0316331480620005c05750600b54600054604051630437883560e11b81526001600160a01b039283169263086f106a926200056c929116903390600401620018cd565b60206040518083038186803b1580156200058557600080fd5b505afa1580156200059a573d6000803e3d6000fd5b505050506040513d601f19601f82011682018060405250810190620005c09190620017f3565b620005df5760405162461bcd60e51b8152600401620002f79062001a5b565b600a54600114620006045760405162461bcd60e51b8152600401620002f790620019c7565b6000600a5580518251146200062d5760405162461bcd60e51b8152600401620002f79062001a26565b60005b82518110156200095757600460008483815181106200065f57634e487b7160e01b600052603260045260246000fd5b6020026020010151815260200190815260200160002054600014620006c35760405162461bcd60e51b815260206004820152601960248201527816195b191bdc98591bce88185b1c9958591e481b1a5cdd1959603a1b6044820152606401620002f7565b306001600160a01b031660026000858481518110620006f257634e487b7160e01b600052603260045260246000fd5b6020026020010151815260200190815260200160002060009054906101000a90046001600160a01b03166001600160a01b0316636352211e600360008786815181106200074f57634e487b7160e01b600052603260045260246000fd5b60200260200101518152602001908152602001600020546040518263ffffffff1660e01b81526004016200078591815260200190565b60206040518083038186803b1580156200079e57600080fd5b505afa158015620007b3573d6000803e3d6000fd5b505050506040513d601f19601f82011682018060405250810190620007d99190620015d1565b6001600160a01b0316146200082b5760405162461bcd60e51b815260206004820152601760248201527616195b191bdc98591bce88185b1c9958591e481cdbdb19604a1b6044820152606401620002f7565b8181815181106200084c57634e487b7160e01b600052603260045260246000fd5b6020026020010151600460008584815181106200087957634e487b7160e01b600052603260045260246000fd5b6020026020010151815260200190815260200160002081905550600160066000828254620008a8919062001af5565b925050819055507fa6cd73580a273eec6c1026108f6b63479fbaef5356dde4ff43e4b38dd187485f838281518110620008f157634e487b7160e01b600052603260045260246000fd5b60200260200101518383815181106200091a57634e487b7160e01b600052603260045260246000fd5b60200260200101516040516200093a929190918252602082015260400190565b60405180910390a1806200094e8162001b2a565b91505062000630565b50506001600a5550565b6001546001600160a01b031615620009b55760405162461bcd60e51b815260206004820152601660248201527516195b191bdc98591bce881a5b9a5d1a585b1a5cd95960521b6044820152606401620002f7565b600080546001600160a01b0386166001600160a01b031991821617909155600b805490911633179055604051849084908490620009f290620014db565b62000a00939291906200190b565b604051809103906000f08015801562000a1d573d6000803e3d6000fd5b50600880546001600160a01b039283166001600160a01b0319918216811790925560098054821690921790915560018054939092169216919091179055505050565b600a5460011462000a845760405162461bcd60e51b8152600401620002f790620019c7565b6000600a8190555b81518110156200095757306001600160a01b03166002600084848151811062000ac557634e487b7160e01b600052603260045260246000fd5b6020026020010151815260200190815260200160002060009054906101000a90046001600160a01b03166001600160a01b0316636352211e6003600086868151811062000b2257634e487b7160e01b600052603260045260246000fd5b60200260200101518152602001908152602001600020546040518263ffffffff1660e01b815260040162000b5891815260200190565b60206040518083038186803b15801562000b7157600080fd5b505afa15801562000b86573d6000803e3d6000fd5b505050506040513d601f19601f8201168201806040525081019062000bac9190620015d1565b6001600160a01b03161462000bd55760405162461bcd60e51b8152600401620002f790620019f2565b6004600083838151811062000bfa57634e487b7160e01b600052603260045260246000fd5b60200260200101518152602001908152602001600020546000141562000c5d5760405162461bcd60e51b815260206004820152601760248201527658656c646f7261646f3a206e6f7420666f722073616c6560481b6044820152606401620002f7565b6002600083838151811062000c8257634e487b7160e01b600052603260045260246000fd5b6020026020010151815260200190815260200160002060009054906101000a90046001600160a01b03166001600160a01b03166323b872dd30856003600087878151811062000ce157634e487b7160e01b600052603260045260246000fd5b60200260200101518152602001908152602001600020546040518463ffffffff1660e01b815260040162000d1893929190620018e7565b600060405180830381600087803b15801562000d3357600080fd5b505af115801562000d48573d6000803e3d6000fd5b50505050600160009054906101000a90046001600160a01b03166001600160a01b03166323b872dd84306004600087878151811062000d9757634e487b7160e01b600052603260045260246000fd5b60200260200101518152602001908152602001600020546040518463ffffffff1660e01b815260040162000dce93929190620018e7565b602060405180830381600087803b15801562000de957600080fd5b505af115801562000dfe573d6000803e3d6000fd5b505050506040513d601f19601f8201168201806040525081019062000e249190620017f3565b506001546040516370a0823160e01b81526001600160a01b0390911690636764765d9082906370a082319062000e5f903090600401620018b9565b60206040518083038186803b15801562000e7857600080fd5b505afa15801562000e8d573d6000803e3d6000fd5b505050506040513d601f19601f8201168201806040525081019062000eb391906200182e565b6040518263ffffffff1660e01b815260040162000ed291815260200190565b600060405180830381600087803b15801562000eed57600080fd5b505af115801562000f02573d6000803e3d6000fd5b5050505060016007600082825462000f1b919062001af5565b9250508190555060016006600082825462000f37919062001b10565b925050819055507f306b3d0468e32a4a4b287be94a0ff526c42c78f7fcc5387b40c45df6b58872356002600084848151811062000f8457634e487b7160e01b600052603260045260246000fd5b6020026020010151815260200190815260200160002060009054906101000a90046001600160a01b03166003600085858151811062000fd357634e487b7160e01b600052603260045260246000fd5b60200260200101518152602001908152602001600020548484815181106200100b57634e487b7160e01b600052603260045260246000fd5b6020026020010151600460008787815181106200103857634e487b7160e01b600052603260045260246000fd5b60200260200101518152602001908152602001600020546040516200108194939291906001600160a01b0394909416845260208401929092526040830152606082015260800190565b60405180910390a180620010958162001b2a565b91505062000a8c565b6000546001600160a01b03163314806200113f5750600b54600054604051630437883560e11b81526001600160a01b039283169263086f106a92620010eb929116903390600401620018cd565b60206040518083038186803b1580156200110457600080fd5b505afa15801562001119573d6000803e3d6000fd5b505050506040513d601f19601f820116820180604052508101906200113f9190620017f3565b6200115e5760405162461bcd60e51b8152600401620002f79062001a5b565b600a54600114620011835760405162461bcd60e51b8152600401620002f790620019c7565b6000600a558051825114620011ac5760405162461bcd60e51b8152600401620002f79062001a26565b60005b8251811015620009575760046000848381518110620011de57634e487b7160e01b600052603260045260246000fd5b6020026020010151815260200190815260200160002054600014156200123f5760405162461bcd60e51b815260206004820152601560248201527416195b191bdc98591bce881b9bdd081b1a5cdd1959605a1b6044820152606401620002f7565b306001600160a01b0316600260008584815181106200126e57634e487b7160e01b600052603260045260246000fd5b6020026020010151815260200190815260200160002060009054906101000a90046001600160a01b03166001600160a01b0316636352211e60036000878681518110620012cb57634e487b7160e01b600052603260045260246000fd5b60200260200101518152602001908152602001600020546040518263ffffffff1660e01b81526004016200130191815260200190565b60206040518083038186803b1580156200131a57600080fd5b505afa1580156200132f573d6000803e3d6000fd5b505050506040513d601f19601f82011682018060405250810190620013559190620015d1565b6001600160a01b0316146200137e5760405162461bcd60e51b8152600401620002f790620019f2565b8181815181106200139f57634e487b7160e01b600052603260045260246000fd5b602002602001015160046000858481518110620013cc57634e487b7160e01b600052603260045260246000fd5b60200260200101518152602001908152602001600020819055508181815181106200140757634e487b7160e01b600052603260045260246000fd5b60200260200101516000141562001433576001600660008282546200142d919062001b10565b90915550505b7f5a9ddcc2aacaec777fe2a17b2bcb726174d3604f46399bad06543beab8f8ae2c8382815181106200147557634e487b7160e01b600052603260045260246000fd5b60200260200101518383815181106200149e57634e487b7160e01b600052603260045260246000fd5b6020026020010151604051620014be929190918252602082015260400190565b60405180910390a180620014d28162001b2a565b915050620011af565b611bf08062001b8e83390190565b600082601f830112620014fa578081fd5b81356020620015136200150d8362001acf565b62001a9c565b80838252828201915082860187848660051b890101111562001533578586fd5b855b85811015620015535781358452928401929084019060010162001535565b5090979650505050505050565b600082601f83011262001571578081fd5b81356001600160401b038111156200158d576200158d62001b5e565b620015a2601f8201601f191660200162001a9c565b818152846020838601011115620015b7578283fd5b816020850160208301379081016020019190915292915050565b600060208284031215620015e3578081fd5b8151620015f08162001b74565b9392505050565b600080604083850312156200160a578081fd5b8235620016178162001b74565b915060208301356001600160401b0381111562001632578182fd5b6200164085828601620014e9565b9150509250929050565b6000806000806080858703121562001660578182fd5b84356200166d8162001b74565b935060208501356001600160401b038082111562001689578384fd5b620016978883890162001560565b94506040870135915080821115620016ad578384fd5b50620016bc8782880162001560565b9250506060850135620016cf8162001b74565b939692955090935050565b60006020808385031215620016ed578182fd5b82356001600160401b038082111562001704578384fd5b818501915085601f83011262001718578384fd5b8135620017296200150d8262001acf565b80828252858201915085850189878560051b880101111562001749578788fd5b875b8481101562001787578135868111156200176357898afd5b620017738c8a838b010162001560565b85525092870192908701906001016200174b565b50909998505050505050505050565b60008060408385031215620017a9578182fd5b82356001600160401b0380821115620017c0578384fd5b620017ce86838701620014e9565b93506020850135915080821115620017e4578283fd5b506200164085828601620014e9565b60006020828403121562001805578081fd5b81518015158114620015f0578182fd5b60006020828403121562001827578081fd5b5035919050565b60006020828403121562001840578081fd5b5051919050565b600080604083850312156200185a578182fd5b505080516020909101519092909150565b60008151808452815b81811015620018925760208185018101518683018201520162001874565b81811115620018a45782602083870101525b50601f01601f19169290920160200192915050565b6001600160a01b0391909116815260200190565b6001600160a01b0392831681529116602082015260400190565b6001600160a01b039384168152919092166020820152604081019190915260600190565b6001600160a01b038416815260606020820181905260009062001931908301856200186b565b82810360408401526200194581856200186b565b9695505050505050565b6000604082016040835280855180835260608501915060608160051b86010192506020808801855b83811015620019a957605f19888703018552620019968683516200186b565b9550938201939082019060010162001977565b50506001600160a01b03969096169490950193909352949350505050565b60208082526011908201527016195b191bdc98591bce881313d0d2d151607a1b604082015260600190565b6020808252601a908201527958656c646f7261646f3a20416c726561647920626f756768742160301b604082015260600190565b6020808252601b908201527a58656c646f7261646f3a20756e62616c616e63656420617272617960281b604082015260600190565b60208082526021908201527f58656c646f7261646f3a206f6e6c792063726561746f72206f722061646d696e6040820152607360f81b606082015260800190565b604051601f8201601f191681016001600160401b038111828210171562001ac75762001ac762001b5e565b604052919050565b60006001600160401b0382111562001aeb5762001aeb62001b5e565b5060051b60200190565b6000821982111562001b0b5762001b0b62001b48565b500190565b60008282101562001b255762001b2562001b48565b500390565b600060001982141562001b415762001b4162001b48565b5060010190565b634e487b7160e01b600052601160045260246000fd5b634e487b7160e01b600052604160045260246000fd5b6001600160a01b038116811462001b8a57600080fd5b5056fe60806040523480156200001157600080fd5b5060405162001bf038038062001bf08339810160408190526200003491620001f1565b8151829082906200004d90600090602085019062000098565b5080516200006390600190602084019062000098565b5050600880546001600160a01b039095166001600160a01b0319958616179055505060098054909216331790915550620002ca565b828054620000a69062000277565b90600052602060002090601f016020900481019282620000ca576000855562000115565b82601f10620000e557805160ff191683800117855562000115565b8280016001018555821562000115579182015b8281111562000115578251825591602001919060010190620000f8565b506200012392915062000127565b5090565b5b8082111562000123576000815560010162000128565b600082601f8301126200014f578081fd5b81516001600160401b03808211156200016c576200016c620002b4565b604051601f8301601f19908116603f01168101908282118183101715620001975762000197620002b4565b81604052838152602092508683858801011115620001b3578485fd5b8491505b83821015620001d65785820183015181830184015290820190620001b7565b83821115620001e757848385830101525b9695505050505050565b60008060006060848603121562000206578283fd5b83516001600160a01b03811681146200021d578384fd5b60208501519093506001600160401b03808211156200023a578384fd5b62000248878388016200013e565b935060408601519150808211156200025e578283fd5b506200026d868287016200013e565b9150509250925092565b600181811c908216806200028c57607f821691505b60208210811415620002ae57634e487b7160e01b600052602260045260246000fd5b50919050565b634e487b7160e01b600052604160045260246000fd5b61191680620002da6000396000f3fe608060405234801561001057600080fd5b50600436106100d05760003560e01c806301ffc9a7146100d557806302d05d3f146100fd57806306fdde0314610128578063081812fc1461013d578063095ea7b31461015057806323b872dd1461016557806342842e0e146101785780636352211e1461018b57806370a082311461019e57806395d89b41146101bf578063a2119377146101c7578063a22cb465146101da578063b88d4fde146101ed578063bc7ee4ac14610200578063c87b56dd14610228578063e985e9c51461023b575b600080fd5b6100e86100e336600461157c565b61024e565b60405190151581526020015b60405180910390f35b600854610110906001600160a01b031681565b6040516001600160a01b0390911681526020016100f4565b6101306102a0565b6040516100f491906116a6565b61011061014b3660046115f6565b610332565b61016361015e366004611480565b6103bf565b005b610163610173366004611393565b6104d0565b610163610186366004611393565b610501565b6101106101993660046115f6565b61051c565b6101b16101ac366004611350565b610593565b6040519081526020016100f4565b61013061061a565b6101b16101d53660046115b4565b610629565b6101636101e8366004611446565b6106cc565b6101636101fb3660046113ce565b61078d565b61021361020e3660046114a9565b6107c5565b604080519283526020830191909152016100f4565b6101306102363660046115f6565b6108ca565b6100e861024936600461136a565b610a41565b60006001600160e01b031982166380ac58cd60e01b148061027f57506001600160e01b03198216635b5e139f60e01b145b8061029a57506301ffc9a760e01b6001600160e01b03198316145b92915050565b6060600080546102af906117fb565b80601f01602080910402602001604051908101604052809291908181526020018280546102db906117fb565b80156103285780601f106102fd57610100808354040283529160200191610328565b820191906000526020600020905b81548152906001019060200180831161030b57829003601f168201915b5050505050905090565b600061033d82610a6f565b6103a35760405162461bcd60e51b815260206004820152602c60248201527f4552433732313a20617070726f76656420717565727920666f72206e6f6e657860448201526b34b9ba32b73a103a37b5b2b760a11b60648201526084015b60405180910390fd5b506000908152600460205260409020546001600160a01b031690565b60006103ca8261051c565b9050806001600160a01b0316836001600160a01b031614156104385760405162461bcd60e51b815260206004820152602160248201527f4552433732313a20617070726f76616c20746f2063757272656e74206f776e656044820152603960f91b606482015260840161039a565b336001600160a01b038216148061045457506104548133610a41565b6104c15760405162461bcd60e51b815260206004820152603860248201527f4552433732313a20617070726f76652063616c6c6572206973206e6f74206f776044820152771b995c881b9bdc88185c1c1c9bdd995908199bdc88185b1b60421b606482015260840161039a565b6104cb8383610a8c565b505050565b6104da3382610afa565b6104f65760405162461bcd60e51b815260040161039a9061170b565b6104cb838383610bbc565b6104cb8383836040518060200160405280600081525061078d565b6000818152600260205260408120546001600160a01b03168061029a5760405162461bcd60e51b815260206004820152602960248201527f4552433732313a206f776e657220717565727920666f72206e6f6e657869737460448201526832b73a103a37b5b2b760b91b606482015260840161039a565b60006001600160a01b0382166105fe5760405162461bcd60e51b815260206004820152602a60248201527f4552433732313a2062616c616e636520717565727920666f7220746865207a65604482015269726f206164647265737360b01b606482015260840161039a565b506001600160a01b031660009081526003602052604090205490565b6060600180546102af906117fb565b6009546000906001600160a01b031633146106965760405162461bcd60e51b815260206004820152602760248201527f58656c646f7261646f3a206f6e6c79207661756c742063616e2063726561746560448201526620746f6b656e7360c81b606482015260840161039a565b6106a4600780546001019055565b60006106af60075490565b90506106bb8382610d4a565b6106c58185610e6a565b9392505050565b6001600160a01b0382163314156107215760405162461bcd60e51b815260206004820152601960248201527822a9219b99189d1030b8383937bb32903a379031b0b63632b960391b604482015260640161039a565b3360008181526005602090815260408083206001600160a01b03871680855290835292819020805460ff191686151590811790915590519081529192917f17307eab39ab6107e8899845ad3d59bd9653f200f220920489ca2b5937696c31910160405180910390a35050565b6107973383610afa565b6107b35760405162461bcd60e51b815260040161039a9061170b565b6107bf84848484610ef5565b50505050565b60095460009081906001600160a01b031633146108355760405162461bcd60e51b815260206004820152602860248201527f58656c646f7261646f3a206f6e6c79207661756c742063616e206374726561746044820152676520746f6b656e7360c01b606482015260840161039a565b60075461084390600161178c565b915060005b84518110156108bc5761085f600780546001019055565b6108718461086c60075490565b610d4a565b6108aa61087d60075490565b86838151811061089d57634e487b7160e01b600052603260045260246000fd5b6020026020010151610e6a565b806108b481611836565b915050610848565b506007545b90509250929050565b60606108d582610a6f565b61093b5760405162461bcd60e51b815260206004820152603160248201527f45524337323155524953746f726167653a2055524920717565727920666f72206044820152703737b732bc34b9ba32b73a103a37b5b2b760791b606482015260840161039a565b60008281526006602052604081208054610954906117fb565b80601f0160208091040260200160405190810160405280929190818152602001828054610980906117fb565b80156109cd5780601f106109a2576101008083540402835291602001916109cd565b820191906000526020600020905b8154815290600101906020018083116109b057829003601f168201915b5050505050905060006109eb60408051602081019091526000815290565b90508051600014156109fe575092915050565b815115610a30578082604051602001610a1892919061163a565b60405160208183030381529060405292505050919050565b610a3984610f28565b949350505050565b6001600160a01b03918216600090815260056020908152604080832093909416825291909152205460ff1690565b6000908152600260205260409020546001600160a01b0316151590565b600081815260046020526040902080546001600160a01b0319166001600160a01b0384169081179091558190610ac18261051c565b6001600160a01b03167f8c5be1e5ebec7d5bd14f71427d1e84f3dd0314c0f7b2291e5b200ac8c7c3b92560405160405180910390a45050565b6000610b0582610a6f565b610b665760405162461bcd60e51b815260206004820152602c60248201527f4552433732313a206f70657261746f7220717565727920666f72206e6f6e657860448201526b34b9ba32b73a103a37b5b2b760a11b606482015260840161039a565b6000610b718361051c565b9050806001600160a01b0316846001600160a01b03161480610bac5750836001600160a01b0316610ba184610332565b6001600160a01b0316145b80610a395750610a398185610a41565b826001600160a01b0316610bcf8261051c565b6001600160a01b031614610c375760405162461bcd60e51b815260206004820152602960248201527f4552433732313a207472616e73666572206f6620746f6b656e2074686174206960448201526839903737ba1037bbb760b91b606482015260840161039a565b6001600160a01b038216610c995760405162461bcd60e51b8152602060048201526024808201527f4552433732313a207472616e7366657220746f20746865207a65726f206164646044820152637265737360e01b606482015260840161039a565b610ca4600082610a8c565b6001600160a01b0383166000908152600360205260408120805460019290610ccd9084906117b8565b90915550506001600160a01b0382166000908152600360205260408120805460019290610cfb90849061178c565b909155505060008181526002602052604080822080546001600160a01b0319166001600160a01b0386811691821790925591518493918716916000805160206118c183398151915291a4505050565b6001600160a01b038216610da05760405162461bcd60e51b815260206004820181905260248201527f4552433732313a206d696e7420746f20746865207a65726f2061646472657373604482015260640161039a565b610da981610a6f565b15610df55760405162461bcd60e51b815260206004820152601c60248201527b115490cdcc8c4e881d1bdad95b88185b1c9958591e481b5a5b9d195960221b604482015260640161039a565b6001600160a01b0382166000908152600360205260408120805460019290610e1e90849061178c565b909155505060008181526002602052604080822080546001600160a01b0319166001600160a01b03861690811790915590518392906000805160206118c1833981519152908290a45050565b610e7382610a6f565b610ed65760405162461bcd60e51b815260206004820152602e60248201527f45524337323155524953746f726167653a2055524920736574206f66206e6f6e60448201526d32bc34b9ba32b73a103a37b5b2b760911b606482015260840161039a565b600082815260066020908152604090912082516104cb92840190611225565b610f00848484610bbc565b610f0c84848484610fff565b6107bf5760405162461bcd60e51b815260040161039a906116b9565b6060610f3382610a6f565b610f975760405162461bcd60e51b815260206004820152602f60248201527f4552433732314d657461646174613a2055524920717565727920666f72206e6f60448201526e3732bc34b9ba32b73a103a37b5b2b760891b606482015260840161039a565b6000610fae60408051602081019091526000815290565b90506000815111610fce57604051806020016040528060008152506106c5565b80610fd88461110c565b604051602001610fe992919061163a565b6040516020818303038152906040529392505050565b60006001600160a01b0384163b1561110157604051630a85bd0160e11b81526001600160a01b0385169063150b7a0290611043903390899088908890600401611669565b602060405180830381600087803b15801561105d57600080fd5b505af192505050801561108d575060408051601f3d908101601f1916820190925261108a91810190611598565b60015b6110e7573d8080156110bb576040519150601f19603f3d011682016040523d82523d6000602084013e6110c0565b606091505b5080516110df5760405162461bcd60e51b815260040161039a906116b9565b805181602001fd5b6001600160e01b031916630a85bd0160e11b149050610a39565b506001949350505050565b6060816111305750506040805180820190915260018152600360fc1b602082015290565b8160005b811561115a578061114481611836565b91506111539050600a836117a4565b9150611134565b6000816001600160401b0381111561118257634e487b7160e01b600052604160045260246000fd5b6040519080825280601f01601f1916602001820160405280156111ac576020820181803683370190505b5090505b8415610a39576111c16001836117b8565b91506111ce600a86611851565b6111d990603061178c565b60f81b8183815181106111fc57634e487b7160e01b600052603260045260246000fd5b60200101906001600160f81b031916908160001a90535061121e600a866117a4565b94506111b0565b828054611231906117fb565b90600052602060002090601f0160209004810192826112535760008555611299565b82601f1061126c57805160ff1916838001178555611299565b82800160010185558215611299579182015b8281111561129957825182559160200191906001019061127e565b506112a59291506112a9565b5090565b5b808211156112a557600081556001016112aa565b60006001600160401b038311156112d7576112d7611891565b6112ea601f8401601f191660200161175c565b90508281528383830111156112fe57600080fd5b828260208301376000602084830101529392505050565b80356001600160a01b038116811461132c57600080fd5b919050565b600082601f830112611341578081fd5b6106c5838335602085016112be565b600060208284031215611361578081fd5b6106c582611315565b6000806040838503121561137c578081fd5b61138583611315565b91506108c160208401611315565b6000806000606084860312156113a7578081fd5b6113b084611315565b92506113be60208501611315565b9150604084013590509250925092565b600080600080608085870312156113e3578081fd5b6113ec85611315565b93506113fa60208601611315565b92506040850135915060608501356001600160401b0381111561141b578182fd5b8501601f8101871361142b578182fd5b61143a878235602084016112be565b91505092959194509250565b60008060408385031215611458578182fd5b61146183611315565b915060208301358015158114611475578182fd5b809150509250929050565b60008060408385031215611492578182fd5b61149b83611315565b946020939093013593505050565b600080604083850312156114bb578182fd5b82356001600160401b03808211156114d1578384fd5b818501915085601f8301126114e4578384fd5b81356020828211156114f8576114f8611891565b8160051b61150782820161175c565b8381528281019086840183880185018c101561152157898afd5b8993505b8584101561155e5780358781111561153b578a8bfd5b6115498d87838c0101611331565b84525060019390930192918401918401611525565b50975061156f915050878201611315565b9450505050509250929050565b60006020828403121561158d578081fd5b81356106c5816118a7565b6000602082840312156115a9578081fd5b81516106c5816118a7565b600080604083850312156115c6578182fd5b82356001600160401b038111156115db578283fd5b6115e785828601611331565b9250506108c160208401611315565b600060208284031215611607578081fd5b5035919050565b600081518084526116268160208601602086016117cf565b601f01601f19169290920160200192915050565b6000835161164c8184602088016117cf565b8351908301906116608183602088016117cf565b01949350505050565b6001600160a01b038581168252841660208201526040810183905260806060820181905260009061169c9083018461160e565b9695505050505050565b6020815260006106c5602083018461160e565b60208082526032908201527f4552433732313a207472616e7366657220746f206e6f6e20455243373231526560408201527131b2b4bb32b91034b6b83632b6b2b73a32b960711b606082015260800190565b60208082526031908201527f4552433732313a207472616e736665722063616c6c6572206973206e6f74206f6040820152701ddb995c881b9bdc88185c1c1c9bdd9959607a1b606082015260800190565b604051601f8201601f191681016001600160401b038111828210171561178457611784611891565b604052919050565b6000821982111561179f5761179f611865565b500190565b6000826117b3576117b361187b565b500490565b6000828210156117ca576117ca611865565b500390565b60005b838110156117ea5781810151838201526020016117d2565b838111156107bf5750506000910152565b600181811c9082168061180f57607f821691505b6020821081141561183057634e487b7160e01b600052602260045260246000fd5b50919050565b600060001982141561184a5761184a611865565b5060010190565b6000826118605761186061187b565b500690565b634e487b7160e01b600052601160045260246000fd5b634e487b7160e01b600052601260045260246000fd5b634e487b7160e01b600052604160045260246000fd5b6001600160e01b0319811681146118bd57600080fd5b5056feddf252ad1be2c89b69c2b068fc378daa952ba7f163c4a11628f55a4df523b3efa2646970667358221220e00c3b31e6c925ff1cf229c79f48a579acfa7cea68fd822569be358183c0de5464736f6c63430008040033a2646970667358221220949d278c455b840a0cd19ddd57c102ea9bd3879c6040ba2b83fad9cbb6c5737664736f6c63430008040033608060405234801561001057600080fd5b506001600e55600060045561390d8061002a6000396000f3fe608060405234801561001057600080fd5b50600436106101755760003560e01c806302a18f4a1461017a57806302d05d3f1461018f578063048e1399146101b857806307e82e0f146101cf578063132002fc146101e25780632ecfb092146101eb57806330326c17146101fe5780633cdf2c62146102215780633e6dd14c1461022a578063447bec3d1461024d57806347db53441461026d57806355ef20e614610280578063586bbd58146102895780635cf1e1231461029257806361f38cf2146102a557806374c260cf146102b85780637fb14441146102cb578063806a37dd146102de578063815f489e146102f157806391c30b0014610304578063a8d7882714610327578063af04c0c91461033a578063afd4fb7b14610342578063bdf7a8e61461037c578063c11b353c1461038f578063cb72c5df146103af578063cf9a083c146103c2578063e8a6926514610410578063fc0c546a14610423578063fe898d6314610436578063ff9dae751461043f575b600080fd5b61018d610188366004613409565b610452565b005b6000546101a2906001600160a01b031681565b6040516101af919061349e565b60405180910390f35b6101c160065481565b6040519081526020016101af565b61018d6101dd36600461319b565b61053d565b6101c160075481565b61018d6101f9366004613216565b6105e8565b61021161020c366004613409565b610e68565b6040516101af9493929190613500565b6101c1600a5481565b6101c1610238366004613409565b6000908152600c602052604090206006015490565b6101c161025b36600461315c565b60036020526000908152604090205481565b61018d61027b366004613376565b610f3a565b6101c160045481565b6101c160055481565b61018d6102a0366004613302565b6110e5565b61018d6102b336600461347d565b6113fd565b6101c16102c6366004613409565b611821565b6101c16102d9366004613409565b6118b7565b61018d6102ec3660046131dc565b6118d8565b61018d6102ff366004613409565b611a71565b61031761031236600461315c565b612056565b60405190151581526020016101af565b61018d610335366004613409565b6120c8565b61018d6122f5565b61035561035036600461347d565b6125fe565b604080516001600160a01b03909416845260208401929092521515908201526060016101af565b61018d61038a366004613439565b612680565b6101c161039d36600461315c565b60026020526000908152604090205481565b61018d6103bd36600461347d565b6128a6565b6103fb6103d036600461347d565b6000918252600d60209081526040808420928452828252808420546001909301909152909120549091565b604080519283526020830191909152016101af565b61018d61041e366004613299565b612bb7565b6001546101a2906001600160a01b031681565b6101c1600b5481565b6101a261044d366004613409565b612f13565b6000546001600160a01b03163314806104ec5750600f54600054604051630437883560e11b81526001600160a01b039283169263086f106a9261049c9291169033906004016134b2565b60206040518083038186803b1580156104b457600080fd5b505afa1580156104c8573d6000803e3d6000fd5b505050506040513d601f19601f820116820180604052508101906104ec919061335a565b6105115760405162461bcd60e51b8152600401610508906136db565b60405180910390fd5b600e546001146105335760405162461bcd60e51b81526004016105089061360f565b6007556001600e55565b6001546001600160a01b03161561058f5760405162461bcd60e51b815260206004820152601660248201527516195b191bdc98591bce881a5b9a5d1a585b1a5cd95960521b6044820152606401610508565b600f80546001600160a01b03199081163317909155600080546001600160a01b038681169184169190911782556001600e8190556004929092556007859055815490841692169190911790556105e36122f5565b505050565b600e5460011461060a5760405162461bcd60e51b81526004016105089061360f565b6000600e5581518351148015610621575080518251145b61063d5760405162461bcd60e51b8152600401610508906136a6565b60005b8351811015610e555781818151811061066957634e487b7160e01b600052603260045260246000fd5b602002602001015160011415610949576002600085838151811061069d57634e487b7160e01b600052603260045260246000fd5b60200260200101516001600160a01b03166001600160a01b03168152602001908152602001600020548382815181106106e657634e487b7160e01b600052603260045260246000fd5b6020026020010151111561070c5760405162461bcd60e51b81526004016105089061363a565b600f60009054906101000a90046001600160a01b03166001600160a01b031663df4e9b956040518163ffffffff1660e01b815260040160206040518083038186803b15801561075a57600080fd5b505afa15801561076e573d6000803e3d6000fd5b505050506040513d601f19601f82011682018060405250810190610792919061317f565b6001600160a01b031663a9059cbb8583815181106107c057634e487b7160e01b600052603260045260246000fd5b60200260200101518584815181106107e857634e487b7160e01b600052603260045260246000fd5b60200260200101516040518363ffffffff1660e01b815260040161080d929190613572565b602060405180830381600087803b15801561082757600080fd5b505af115801561083b573d6000803e3d6000fd5b505050506040513d601f19601f8201168201806040525081019061085f919061335a565b61087b5760405162461bcd60e51b8152600401610508906135da565b82818151811061089b57634e487b7160e01b600052603260045260246000fd5b6020026020010151600260008684815181106108c757634e487b7160e01b600052603260045260246000fd5b60200260200101516001600160a01b03166001600160a01b0316815260200190815260200160002060008282546108fe91906137b8565b9250508190555082818151811061092557634e487b7160e01b600052603260045260246000fd5b6020026020010151600a600082825461093e91906137b8565b90915550610d949050565b81818151811061096957634e487b7160e01b600052603260045260246000fd5b602002602001015160021415610c3e576003600085838151811061099d57634e487b7160e01b600052603260045260246000fd5b60200260200101516001600160a01b03166001600160a01b03168152602001908152602001600020548382815181106109e657634e487b7160e01b600052603260045260246000fd5b60200260200101511115610a0c5760405162461bcd60e51b81526004016105089061363a565b600f60009054906101000a90046001600160a01b03166001600160a01b0316633e413bee6040518163ffffffff1660e01b815260040160206040518083038186803b158015610a5a57600080fd5b505afa158015610a6e573d6000803e3d6000fd5b505050506040513d601f19601f82011682018060405250810190610a92919061317f565b6001600160a01b031663a9059cbb858381518110610ac057634e487b7160e01b600052603260045260246000fd5b6020026020010151858481518110610ae857634e487b7160e01b600052603260045260246000fd5b60200260200101516040518363ffffffff1660e01b8152600401610b0d929190613572565b602060405180830381600087803b158015610b2757600080fd5b505af1158015610b3b573d6000803e3d6000fd5b505050506040513d601f19601f82011682018060405250810190610b5f919061335a565b610b7b5760405162461bcd60e51b8152600401610508906135da565b828181518110610b9b57634e487b7160e01b600052603260045260246000fd5b602002602001015160036000868481518110610bc757634e487b7160e01b600052603260045260246000fd5b60200260200101516001600160a01b03166001600160a01b031681526020019081526020016000206000828254610bfe91906137b8565b92505081905550828181518110610c2557634e487b7160e01b600052603260045260246000fd5b6020026020010151600b600082825461093e91906137b8565b818181518110610c5e57634e487b7160e01b600052603260045260246000fd5b602002602001015160031415610d4f5760036000858381518110610c9257634e487b7160e01b600052603260045260246000fd5b60200260200101516001600160a01b03166001600160a01b0316815260200190815260200160002054838281518110610cdb57634e487b7160e01b600052603260045260246000fd5b60200260200101511115610d015760405162461bcd60e51b81526004016105089061363a565b600f60009054906101000a90046001600160a01b03166001600160a01b031663f4b9fa756040518163ffffffff1660e01b815260040160206040518083038186803b158015610a5a57600080fd5b60405162461bcd60e51b815260206004820152601a60248201527916195b191bdc98591bce881a5b9d985b1a59081d1bdad95b925960321b6044820152606401610508565b6000548351600080516020613898833981519152916001600160a01b031690859084908110610dd357634e487b7160e01b600052603260045260246000fd5b6020026020010151868481518110610dfb57634e487b7160e01b600052603260045260246000fd5b6020026020010151858581518110610e2357634e487b7160e01b600052603260045260246000fd5b6020026020010151604051610e3b949392919061358b565b60405180910390a180610e4d8161380a565b915050610640565b50610e5e6122f5565b50506001600e5550565b6000818152600c6020526040812060018101546004820154825460029093018054606094869485946001600160a01b0390911693929091908390610eab906137cf565b80601f0160208091040260200160405190810160405280929190818152602001828054610ed7906137cf565b8015610f245780601f10610ef957610100808354040283529160200191610f24565b820191906000526020600020905b815481529060010190602001808311610f0757829003601f168201915b5050505050925093509350935093509193509193565b6001546040516370a0823160e01b81526000916001600160a01b0316906370a0823190610f6b90339060040161349e565b60206040518083038186803b158015610f8357600080fd5b505afa158015610f97573d6000803e3d6000fd5b505050506040513d601f19601f82011682018060405250810190610fbb9190613421565b1180610fd157506000546001600160a01b031633145b610fed5760405162461bcd60e51b81526004016105089061371c565b600e5460011461100f5760405162461bcd60e51b81526004016105089061360f565b6000600e819055600480548252600c6020908152604080842060010180546001600160a01b0319163317905582548452808420600290840181905592548452909220845161106593919092019190850190612fee565b50600480546000908152600c6020526040808220849055825482528120426003909101558154600192919061109b9084906137a0565b925050819055506000805160206138788339815191526003303360016004546110c491906137b8565b6040516110d494939291906135b5565b60405180910390a150506001600e55565b6001546040516370a0823160e01b81526000916001600160a01b0316906370a082319061111690339060040161349e565b60206040518083038186803b15801561112e57600080fd5b505afa158015611142573d6000803e3d6000fd5b505050506040513d601f19601f820116820180604052508101906111669190613421565b118061117c57506000546001600160a01b031633145b6111985760405162461bcd60e51b81526004016105089061371c565b600e546001146111ba5760405162461bcd60e51b81526004016105089061360f565b6000600e5582518251146111e05760405162461bcd60e51b8152600401610508906136a6565b600480546000908152600c6020526040808220600190810180546001600160a01b0319163317905583548352818320840155825482528082206002905591548152908120600501805483151560ff199091161790555b825181101561135557600c6000600454815260200190815260200160002060060183828151811061127757634e487b7160e01b600052603260045260246000fd5b60209081029190910181015182546001810184556000938452919092200180546001600160a01b0319166001600160a01b0390921691909117905583518490829081106112d457634e487b7160e01b600052603260045260246000fd5b6020026020010151600c60006004548152602001908152602001600020600701600085848151811061131657634e487b7160e01b600052603260045260246000fd5b60200260200101516001600160a01b03166001600160a01b0316815260200190815260200160002081905550808061134d9061380a565b915050611236565b50600480546000908152600c6020526040812042600390910155815460098054600181810183559184527f6e1540171b6c0c960b71a7020d9f60077f6af931a8bbf590da0223dacf75c7af018290559291906113b29084906137a0565b925050819055506000805160206138788339815191526002303360016004546113db91906137b8565b6040516113eb94939291906135b5565b60405180910390a150506001600e5550565b600e5460011461141f5760405162461bcd60e51b81526004016105089061360f565b6000600e5560018114156115c0573360009081526002602052604090205482111561145c5760405162461bcd60e51b81526004016105089061363a565b600f60009054906101000a90046001600160a01b03166001600160a01b031663df4e9b956040518163ffffffff1660e01b815260040160206040518083038186803b1580156114aa57600080fd5b505afa1580156114be573d6000803e3d6000fd5b505050506040513d601f19601f820116820180604052508101906114e2919061317f565b6001600160a01b031663a9059cbb33846040518363ffffffff1660e01b815260040161150f929190613572565b602060405180830381600087803b15801561152957600080fd5b505af115801561153d573d6000803e3d6000fd5b505050506040513d601f19601f82011682018060405250810190611561919061335a565b61157d5760405162461bcd60e51b8152600401610508906135da565b336000908152600260205260408120805484929061159c9084906137b8565b9250508190555081600a60008282546115b591906137b8565b909155506117d79050565b806002141561175157336000908152600360205260409020548211156115f85760405162461bcd60e51b81526004016105089061363a565b600f60009054906101000a90046001600160a01b03166001600160a01b0316633e413bee6040518163ffffffff1660e01b815260040160206040518083038186803b15801561164657600080fd5b505afa15801561165a573d6000803e3d6000fd5b505050506040513d601f19601f8201168201806040525081019061167e919061317f565b6001600160a01b031663a9059cbb33846040518363ffffffff1660e01b81526004016116ab929190613572565b602060405180830381600087803b1580156116c557600080fd5b505af11580156116d9573d6000803e3d6000fd5b505050506040513d601f19601f820116820180604052508101906116fd919061335a565b6117195760405162461bcd60e51b8152600401610508906135da565b33600090815260036020526040812080548492906117389084906137b8565b9250508190555081600b60008282546115b591906137b8565b8060031415610d4f57336000908152600360205260409020548211156117895760405162461bcd60e51b81526004016105089061363a565b600f60009054906101000a90046001600160a01b03166001600160a01b031663f4b9fa756040518163ffffffff1660e01b815260040160206040518083038186803b15801561164657600080fd5b60005460405160008051602061389883398151915291611808916001600160a01b039091169085903390869061358b565b60405180910390a16118186122f5565b50506001600e55565b6000818152600c6020908152604080832054600d8352818420600180865290810190935292205490919060025b8281116118af576000858152600d6020908152604080832084845260010190915290205482101561189d576000858152600d602090815260408083208484526001019091529020549093509050825b806118a78161380a565b91505061184e565b505050919050565b600981815481106118c757600080fd5b600091825260209091200154905081565b6000546001600160a01b03163314806119725750600f54600054604051630437883560e11b81526001600160a01b039283169263086f106a926119229291169033906004016134b2565b60206040518083038186803b15801561193a57600080fd5b505afa15801561194e573d6000803e3d6000fd5b505050506040513d601f19601f82011682018060405250810190611972919061335a565b61198e5760405162461bcd60e51b8152600401610508906136db565b60005b8151811015611a6d5760088282815181106119bc57634e487b7160e01b600052603260045260246000fd5b60209081029190910181015182546001810184556000938452919092200180546001600160a01b0319166001600160a01b0390921691909117905581517f8ce1ff8748f77ed2b1d77d5edacc587b0597d077d3756f19065f8447d6398796903090849084908110611a3d57634e487b7160e01b600052603260045260246000fd5b6020026020010151604051611a539291906134b2565b60405180910390a180611a658161380a565b915050611991565b5050565b6007546000828152600c6020526040902060030154829190611a94904290612f3d565b11611aed5760405162461bcd60e51b815260206004820152602360248201527f58656c646f7261646f3a20766f74696e67206475726174696f6e206e6f74206f6044820152623b32b960e91b6064820152608401610508565b600e54600114611b0f5760405162461bcd60e51b81526004016105089061360f565b6000600e55611b1d82611821565b600214611b6c5760405162461bcd60e51b815260206004820152601e60248201527f58656c646f7261646f3a2070726f706f73616c206e6f742070617373656400006044820152606401610508565b6000828152600c6020526040812060060154905b81811015611f89576000848152600c602052604090206005015460ff1615611ceb576000848152600c602052604081206006810180546007909201929184908110611bdb57634e487b7160e01b600052603260045260246000fd5b60009182526020808320909101546001600160a01b03168352828101939093526040918201812054878252600c9093529081206006018054600292919085908110611c3657634e487b7160e01b600052603260045260246000fd5b60009182526020808320909101546001600160a01b0316835282019290925260400181208054909190611c6a9084906137a0565b90915550506000848152600c602052604081206006810180546007909201929184908110611ca857634e487b7160e01b600052603260045260246000fd5b60009182526020808320909101546001600160a01b03168352820192909252604001812054600a805491929091611ce09084906137a0565b90915550611e2f9050565b6000848152600c602052604081206006810180546007909201929184908110611d2457634e487b7160e01b600052603260045260246000fd5b60009182526020808320909101546001600160a01b03168352828101939093526040918201812054878252600c9093529081206006018054600392919085908110611d7f57634e487b7160e01b600052603260045260246000fd5b60009182526020808320909101546001600160a01b0316835282019290925260400181208054909190611db39084906137a0565b90915550506000848152600c602052604081206006810180546007909201929184908110611df157634e487b7160e01b600052603260045260246000fd5b60009182526020808320909101546001600160a01b03168352820192909252604001812054600b805491929091611e299084906137a0565b90915550505b6000805160206138b88339815191523030600c60008881526020019081526020016000206006018481548110611e7557634e487b7160e01b600052603260045260246000fd5b6000918252602080832090910154898352600c909152604082206006810180546001600160a01b039093169360079092019288908110611ec557634e487b7160e01b600052603260045260246000fd5b60009182526020808320909101546001600160a01b031683528281019390935260409182018120548b8252600c909352819020600501549051611f0f959493929160ff16906134cc565b60405180910390a16000848152600c6020526040812060068101805460079092019183919085908110611f5257634e487b7160e01b600052603260045260246000fd5b60009182526020808320909101546001600160a01b0316835282019290925260400190205580611f818161380a565b915050611b80565b5050600a546005541015611ff25760405162461bcd60e51b815260206004820152602a60248201527f58656c646f7261646f3a204e617469766520417070726f76656420416d6f756e60448201526974204f766572664c6f7760b01b6064820152608401610508565b600b5460065410156118185760405162461bcd60e51b815260206004820152602760248201527f58656c646f7261646f3a2055534420417070726f76656420416d6f756e74204f604482015266766572664c6f7760c81b6064820152608401610508565b6000805b6008548110156120bf576008818154811061208557634e487b7160e01b600052603260045260246000fd5b6000918252602090912001546001600160a01b03848116911614156120ad5750600192915050565b806120b78161380a565b91505061205a565b50600092915050565b6000546001600160a01b03163314806121625750600f54600054604051630437883560e11b81526001600160a01b039283169263086f106a926121129291169033906004016134b2565b60206040518083038186803b15801561212a57600080fd5b505afa15801561213e573d6000803e3d6000fd5b505050506040513d601f19601f82011682018060405250810190612162919061335a565b61217e5760405162461bcd60e51b8152600401610508906136db565b600e546001146121a05760405162461bcd60e51b81526004016105089061360f565b6000600e819055507fbf5723e149efe92c45939a13a1c237b15119047086842e13f46a8c484f875cad30600883815481106121eb57634e487b7160e01b600052603260045260246000fd5b60009182526020909120015460405161220e92916001600160a01b0316906134b2565b60405180910390a160088054612226906001906137b8565b8154811061224457634e487b7160e01b600052603260045260246000fd5b600091825260209091200154600880546001600160a01b03909216918390811061227e57634e487b7160e01b600052603260045260246000fd5b9060005260206000200160006101000a8154816001600160a01b0302191690836001600160a01b0316021790555060088054806122cb57634e487b7160e01b600052603160045260246000fd5b600082815260209020810160001990810180546001600160a01b0319169055019055506001600e55565b600f60009054906101000a90046001600160a01b03166001600160a01b031663df4e9b956040518163ffffffff1660e01b815260040160206040518083038186803b15801561234357600080fd5b505afa158015612357573d6000803e3d6000fd5b505050506040513d601f19601f8201168201806040525081019061237b919061317f565b6001600160a01b03166370a08231306040518263ffffffff1660e01b81526004016123a6919061349e565b60206040518083038186803b1580156123be57600080fd5b505afa1580156123d2573d6000803e3d6000fd5b505050506040513d601f19601f820116820180604052508101906123f69190613421565b600555600f546040805163f4b9fa7560e01b815290516125f9926001600160a01b03169163f4b9fa75916004808301926020929190829003018186803b15801561243f57600080fd5b505afa158015612453573d6000803e3d6000fd5b505050506040513d601f19601f82011682018060405250810190612477919061317f565b6001600160a01b03166370a08231306040518263ffffffff1660e01b81526004016124a2919061349e565b60206040518083038186803b1580156124ba57600080fd5b505afa1580156124ce573d6000803e3d6000fd5b505050506040513d601f19601f820116820180604052508101906124f29190613421565b600f60009054906101000a90046001600160a01b03166001600160a01b0316633e413bee6040518163ffffffff1660e01b815260040160206040518083038186803b15801561254057600080fd5b505afa158015612554573d6000803e3d6000fd5b505050506040513d601f19601f82011682018060405250810190612578919061317f565b6001600160a01b03166370a08231306040518263ffffffff1660e01b81526004016125a3919061349e565b60206040518083038186803b1580156125bb57600080fd5b505afa1580156125cf573d6000803e3d6000fd5b505050506040513d601f19601f820116820180604052508101906125f39190613421565b90612f99565b600655565b6000828152600c602052604081206006018054829182918590811061263357634e487b7160e01b600052603260045260246000fd5b6000918252602080832090910154878352600c80835260408085206001600160a01b03909316808652600784018552908520549990945290915260050154909660ff909116945092505050565b6000546001600160a01b031633148061271a5750600f54600054604051630437883560e11b81526001600160a01b039283169263086f106a926126ca9291169033906004016134b2565b60206040518083038186803b1580156126e257600080fd5b505afa1580156126f6573d6000803e3d6000fd5b505050506040513d601f19601f8201168201806040525081019061271a919061335a565b6127365760405162461bcd60e51b8152600401610508906136db565b600e546001146127585760405162461bcd60e51b81526004016105089061360f565b6000600e8190555b815181101561289d5760015482516001600160a01b039091169063f0dda65c908490849081106127a057634e487b7160e01b600052603260045260246000fd5b6020026020010151856040518363ffffffff1660e01b81526004016127c6929190613572565b600060405180830381600087803b1580156127e057600080fd5b505af11580156127f4573d6000803e3d6000fd5b505050507f6e5271f6680ab58958373792fb5ccbf60b1627dbfa97e4cfe950d5be733fd40160008054906101000a90046001600160a01b03168484848151811061284e57634e487b7160e01b600052603260045260246000fd5b6020026020010151604051612883939291906001600160a01b0393841681526020810192909252909116604082015260600190565b60405180910390a1806128958161380a565b915050612760565b506118186122f5565b6007546000838152600c60205260409020600301548391906128c9904290612f3d565b106129165760405162461bcd60e51b815260206004820152601f60248201527f58656c646f7261646f3a20766f74696e67206475726174696f6e206f766572006044820152606401610508565b6001546040516370a0823160e01b81526000916001600160a01b0316906370a082319061294790339060040161349e565b60206040518083038186803b15801561295f57600080fd5b505afa158015612973573d6000803e3d6000fd5b505050506040513d601f19601f820116820180604052508101906129979190613421565b11806129ad57506000546001600160a01b031633145b6129c95760405162461bcd60e51b81526004016105089061371c565b6000838152600d60209081526040808320338452600201909152902054839015612a305760405162461bcd60e51b815260206004820152601860248201527716195b191bdc98591bce88185b1c9958591e481d9bdd195960421b6044820152606401610508565b600e54600114612a525760405162461bcd60e51b81526004016105089061360f565b6000600e5560018310801590612a7657506000848152600c60205260409020548311155b612abd5760405162461bcd60e51b815260206004820152601860248201527758656c646f7261646f3a206f7574206f662063686f69636560401b6044820152606401610508565b6000848152600d602090815260408083203384526002810183528184208790558684529091528120805460019290612af69084906137a0565b90915550506001546040516370a0823160e01b81526001600160a01b03909116906370a0823190612b2b90339060040161349e565b60206040518083038186803b158015612b4357600080fd5b505afa158015612b57573d6000803e3d6000fd5b505050506040513d601f19601f82011682018060405250810190612b7b9190613421565b6000858152600d6020908152604080832087845260010190915281208054909190612ba79084906137a0565b90915550506001600e5550505050565b600e54600114612bd95760405162461bcd60e51b81526004016105089061360f565b6000600e8190555b8251811015612f08578115612d3857336000908152600260205260409020548351849083908110612c2257634e487b7160e01b600052603260045260246000fd5b602002602001015110612c475760405162461bcd60e51b815260040161050890613671565b828181518110612c6757634e487b7160e01b600052603260045260246000fd5b602002602001015160026000336001600160a01b03166001600160a01b031681526020019081526020016000206000828254612ca391906137b8565b92505081905550828181518110612cca57634e487b7160e01b600052603260045260246000fd5b602002602001015160026000868481518110612cf657634e487b7160e01b600052603260045260246000fd5b60200260200101516001600160a01b03166001600160a01b031681526020019081526020016000206000828254612d2d91906137a0565b90915550612e7b9050565b336000908152600360205260409020548351849083908110612d6a57634e487b7160e01b600052603260045260246000fd5b602002602001015110612d8f5760405162461bcd60e51b815260040161050890613671565b828181518110612daf57634e487b7160e01b600052603260045260246000fd5b602002602001015160036000336001600160a01b03166001600160a01b031681526020019081526020016000206000828254612deb91906137b8565b92505081905550828181518110612e1257634e487b7160e01b600052603260045260246000fd5b602002602001015160036000868481518110612e3e57634e487b7160e01b600052603260045260246000fd5b60200260200101516001600160a01b03166001600160a01b031681526020019081526020016000206000828254612e7591906137a0565b90915550505b6000805160206138b88339815191523033868481518110612eac57634e487b7160e01b600052603260045260246000fd5b6020026020010151868581518110612ed457634e487b7160e01b600052603260045260246000fd5b602002602001015186604051612eee9594939291906134cc565b60405180910390a180612f008161380a565b915050612be1565b50506001600e555050565b60088181548110612f2357600080fd5b6000918252602090912001546001600160a01b0316905081565b600082612f4a83826137b8565b9150811115612f935760405162461bcd60e51b815260206004820152601560248201527464732d6d6174682d7375622d756e646572666c6f7760581b6044820152606401610508565b92915050565b600082612fa683826137a0565b9150811015612f935760405162461bcd60e51b815260206004820152601460248201527364732d6d6174682d6164642d6f766572666c6f7760601b6044820152606401610508565b828054612ffa906137cf565b90600052602060002090601f01602090048101928261301c5760008555613062565b82601f1061303557805160ff1916838001178555613062565b82800160010185558215613062579182015b82811115613062578251825591602001919060010190613047565b5061306e929150613072565b5090565b5b8082111561306e5760008155600101613073565b600082601f830112613097578081fd5b813560206130ac6130a78361377d565b61374d565b80838252828201915082860187848660051b89010111156130cb578586fd5b855b858110156130f25781356130e081613851565b845292840192908401906001016130cd565b5090979650505050505050565b600082601f83011261310f578081fd5b8135602061311f6130a78361377d565b80838252828201915082860187848660051b890101111561313e578586fd5b855b858110156130f257813584529284019290840190600101613140565b60006020828403121561316d578081fd5b813561317881613851565b9392505050565b600060208284031215613190578081fd5b815161317881613851565b6000806000606084860312156131af578182fd5b83356131ba81613851565b92506020840135915060408401356131d181613851565b809150509250925092565b6000602082840312156131ed578081fd5b81356001600160401b03811115613202578182fd5b61320e84828501613087565b949350505050565b60008060006060848603121561322a578283fd5b83356001600160401b0380821115613240578485fd5b61324c87838801613087565b94506020860135915080821115613261578384fd5b61326d878388016130ff565b93506040860135915080821115613282578283fd5b5061328f868287016130ff565b9150509250925092565b6000806000606084860312156132ad578283fd5b83356001600160401b03808211156132c3578485fd5b6132cf87838801613087565b945060208601359150808211156132e4578384fd5b506132f1868287016130ff565b92505060408401356131d181613869565b600080600060608486031215613316578283fd5b83356001600160401b038082111561332c578485fd5b613338878388016130ff565b9450602086013591508082111561334d578384fd5b506132f186828701613087565b60006020828403121561336b578081fd5b815161317881613869565b60008060408385031215613388578182fd5b82356001600160401b038082111561339e578384fd5b818501915085601f8301126133b1578384fd5b81356020828211156133c5576133c561383b565b6133d7601f8301601f1916820161374d565b925081835287818386010111156133ec578586fd5b818185018285013790820181019490945295939092013593505050565b60006020828403121561341a578081fd5b5035919050565b600060208284031215613432578081fd5b5051919050565b6000806040838503121561344b578182fd5b8235915060208301356001600160401b03811115613467578182fd5b61347385828601613087565b9150509250929050565b6000806040838503121561348f578182fd5b50508035926020909101359150565b6001600160a01b0391909116815260200190565b6001600160a01b0392831681529116602082015260400190565b6001600160a01b03958616815293851660208501529190931660408301526060820192909252901515608082015260a00190565b60018060a01b0385168152600060206080818401528551806080850152825b8181101561353b5787810183015185820160a00152820161351f565b8181111561354c578360a083870101525b5060408401959095525050606081019190915260a0601f909201601f1916010192915050565b6001600160a01b03929092168252602082015260400190565b6001600160a01b039485168152602081019390935292166040820152606081019190915260800190565b9384526001600160a01b03928316602085015291166040830152606082015260800190565b6020808252818101527f58656c646f7261646f3a206772616e74207472616e73666572206661696c6564604082015260600190565b60208082526011908201527016195b191bdc98591bce881313d0d2d151607a1b604082015260600190565b6020808252601f908201527f58656c646f7261646f3a20616d6f756e742065786365656473206772616e7400604082015260600190565b6020808252818101527f58656c646f7261646f3a206e6f7420656e6f75676820616c6c6f77616e636573604082015260600190565b6020808252601b908201527a58656c646f7261646f3a20756e62616c616e63656420617272617960281b604082015260600190565b60208082526021908201527f58656c646f7261646f3a206f6e6c792063726561746f72206f722061646d696e6040820152607360f81b606082015260800190565b60208082526017908201527658656c646f7261646f3a204f6e6c7920686f6c6465727360481b604082015260600190565b604051601f8201601f191681016001600160401b03811182821017156137755761377561383b565b604052919050565b60006001600160401b038211156137965761379661383b565b5060051b60200190565b600082198211156137b3576137b3613825565b500190565b6000828210156137ca576137ca613825565b500390565b600181811c908216806137e357607f821691505b6020821081141561380457634e487b7160e01b600052602260045260246000fd5b50919050565b600060001982141561381e5761381e613825565b5060010190565b634e487b7160e01b600052601160045260246000fd5b634e487b7160e01b600052604160045260246000fd5b6001600160a01b038116811461386657600080fd5b50565b801515811461386657600080fdfe8636bc0a9ebf1f414adb2280a44aa7aae99276784cd2f019656ffaa9ab34d9d861d4bff395ada19235ddf1f3be38e41f33d22c3835abe0bb6270aa61933f2c21e2d70ec33c780b95e45a22e34e2c41a82efd3ac9109ff713a480c8a786971136a2646970667358221220cde8e20ffbfa89ab48b91497be795e2c245c4d50c9f56a3e16cdb19e138f6c0464736f6c63430008040033",
  "linkReferences": {},
  "deployedLinkReferences": {}
}